{
  "address": "0xebc9642aD5A355D3D4183243A870F71d4fA9564E",
  "abi": [
    {
      "inputs": [
        {
          "internalType": "address",
          "name": "_router",
          "type": "address"
        }
      ],
      "stateMutability": "nonpayable",
      "type": "constructor"
    },
    {
      "inputs": [
        {
          "internalType": "address",
          "name": "owner",
          "type": "address"
        }
      ],
      "name": "OwnableInvalidOwner",
      "type": "error"
    },
    {
      "inputs": [
        {
          "internalType": "address",
          "name": "account",
          "type": "address"
        }
      ],
      "name": "OwnableUnauthorizedAccount",
      "type": "error"
    },
    {
      "anonymous": false,
      "inputs": [
        {
          "indexed": true,
          "internalType": "address",
          "name": "tokenA",
          "type": "address"
        },
        {
          "indexed": true,
          "internalType": "address",
          "name": "tokenB",
          "type": "address"
        },
        {
          "indexed": false,
          "internalType": "address",
          "name": "pair",
          "type": "address"
        },
        {
          "indexed": false,
          "internalType": "uint256",
          "name": "amountA",
          "type": "uint256"
        },
        {
          "indexed": false,
          "internalType": "uint256",
          "name": "amountB",
          "type": "uint256"
        },
        {
          "indexed": false,
          "internalType": "uint256",
          "name": "liquidity",
          "type": "uint256"
        }
      ],
      "name": "LiquidityAdded",
      "type": "event"
    },
    {
      "anonymous": false,
      "inputs": [
        {
          "indexed": true,
          "internalType": "address",
          "name": "pair",
          "type": "address"
        },
        {
          "indexed": false,
          "internalType": "uint256",
          "name": "unlockTime",
          "type": "uint256"
        }
      ],
      "name": "LiquidityLocked",
      "type": "event"
    },
    {
      "anonymous": false,
      "inputs": [
        {
          "indexed": true,
          "internalType": "address",
          "name": "pair",
          "type": "address"
        },
        {
          "indexed": false,
          "internalType": "address",
          "name": "recipient",
          "type": "address"
        }
      ],
      "name": "LiquidityUnlocked",
      "type": "event"
    },
    {
      "anonymous": false,
      "inputs": [
        {
          "indexed": true,
          "internalType": "address",
          "name": "previousOwner",
          "type": "address"
        },
        {
          "indexed": true,
          "internalType": "address",
          "name": "newOwner",
          "type": "address"
        }
      ],
      "name": "OwnershipTransferred",
      "type": "event"
    },
    {
      "anonymous": false,
      "inputs": [
        {
          "indexed": true,
          "internalType": "address",
          "name": "tokenA",
          "type": "address"
        },
        {
          "indexed": true,
          "internalType": "address",
          "name": "tokenB",
          "type": "address"
        },
        {
          "indexed": false,
          "internalType": "address",
          "name": "pair",
          "type": "address"
        }
      ],
      "name": "PairCreated",
      "type": "event"
    },
    {
      "anonymous": false,
      "inputs": [
        {
          "indexed": false,
          "internalType": "address",
          "name": "token",
          "type": "address"
        },
        {
          "indexed": false,
          "internalType": "address",
          "name": "recipient",
          "type": "address"
        },
        {
          "indexed": false,
          "internalType": "uint256",
          "name": "amount",
          "type": "uint256"
        }
      ],
      "name": "RefundSent",
      "type": "event"
    },
    {
      "anonymous": false,
      "inputs": [
        {
          "indexed": false,
          "internalType": "address",
          "name": "token",
          "type": "address"
        },
        {
          "indexed": false,
          "internalType": "uint256",
          "name": "amount",
          "type": "uint256"
        }
      ],
      "name": "TokensApproved",
      "type": "event"
    },
    {
      "anonymous": false,
      "inputs": [
        {
          "indexed": false,
          "internalType": "address",
          "name": "token",
          "type": "address"
        },
        {
          "indexed": false,
          "internalType": "address",
          "name": "from",
          "type": "address"
        },
        {
          "indexed": false,
          "internalType": "address",
          "name": "to",
          "type": "address"
        },
        {
          "indexed": false,
          "internalType": "uint256",
          "name": "amount",
          "type": "uint256"
        }
      ],
      "name": "TokensTransferred",
      "type": "event"
    },
    {
      "inputs": [
        {
          "internalType": "address",
          "name": "tokenA",
          "type": "address"
        },
        {
          "internalType": "address",
          "name": "tokenB",
          "type": "address"
        },
        {
          "internalType": "uint256",
          "name": "amountA",
          "type": "uint256"
        },
        {
          "internalType": "uint256",
          "name": "amountB",
          "type": "uint256"
        },
        {
          "internalType": "uint256",
          "name": "amountAMin",
          "type": "uint256"
        },
        {
          "internalType": "uint256",
          "name": "amountBMin",
          "type": "uint256"
        },
        {
          "internalType": "uint256",
          "name": "lockDuration",
          "type": "uint256"
        }
      ],
      "name": "addLiquidity",
      "outputs": [
        {
          "internalType": "uint256",
          "name": "amountTokenA",
          "type": "uint256"
        },
        {
          "internalType": "uint256",
          "name": "amountTokenB",
          "type": "uint256"
        },
        {
          "internalType": "uint256",
          "name": "liquidity",
          "type": "uint256"
        }
      ],
      "stateMutability": "payable",
      "type": "function"
    },
    {
      "inputs": [
        {
          "internalType": "address",
          "name": "token",
          "type": "address"
        },
        {
          "internalType": "uint256",
          "name": "amountToken",
          "type": "uint256"
        },
        {
          "internalType": "uint256",
          "name": "amountTokenMin",
          "type": "uint256"
        },
        {
          "internalType": "uint256",
          "name": "amountETHMin",
          "type": "uint256"
        },
        {
          "internalType": "uint256",
          "name": "lockDuration",
          "type": "uint256"
        }
      ],
      "name": "addLiquidityETH",
      "outputs": [
        {
          "internalType": "uint256",
          "name": "amountTokenOut",
          "type": "uint256"
        },
        {
          "internalType": "uint256",
          "name": "amountETH",
          "type": "uint256"
        },
        {
          "internalType": "uint256",
          "name": "liquidity",
          "type": "uint256"
        }
      ],
      "stateMutability": "payable",
      "type": "function"
    },
    {
      "inputs": [
        {
          "internalType": "address",
          "name": "token",
          "type": "address"
        },
        {
          "internalType": "address",
          "name": "spender",
          "type": "address"
        }
      ],
      "name": "checkAllowance",
      "outputs": [
        {
          "internalType": "uint256",
          "name": "",
          "type": "uint256"
        }
      ],
      "stateMutability": "view",
      "type": "function"
    },
    {
      "inputs": [
        {
          "internalType": "address",
          "name": "token",
          "type": "address"
        },
        {
          "internalType": "address",
          "name": "account",
          "type": "address"
        }
      ],
      "name": "checkBalance",
      "outputs": [
        {
          "internalType": "uint256",
          "name": "",
          "type": "uint256"
        }
      ],
      "stateMutability": "view",
      "type": "function"
    },
    {
      "inputs": [
        {
          "internalType": "address",
          "name": "tokenA",
          "type": "address"
        },
        {
          "internalType": "address",
          "name": "tokenB",
          "type": "address"
        }
      ],
      "name": "createPair",
      "outputs": [
        {
          "internalType": "address",
          "name": "pair",
          "type": "address"
        }
      ],
      "stateMutability": "nonpayable",
      "type": "function"
    },
    {
      "inputs": [
        {
          "internalType": "address",
          "name": "token",
          "type": "address"
        },
        {
          "internalType": "address",
          "name": "spender",
          "type": "address"
        },
        {
          "internalType": "uint256",
          "name": "amount",
          "type": "uint256"
        }
      ],
      "name": "debugApproveToken",
      "outputs": [],
      "stateMutability": "nonpayable",
      "type": "function"
    },
    {
      "inputs": [
        {
          "internalType": "address",
          "name": "token",
          "type": "address"
        },
        {
          "internalType": "address",
          "name": "to",
          "type": "address"
        },
        {
          "internalType": "uint256",
          "name": "amount",
          "type": "uint256"
        }
      ],
      "name": "debugTransferToken",
      "outputs": [],
      "stateMutability": "nonpayable",
      "type": "function"
    },
    {
      "inputs": [
        {
          "internalType": "address",
          "name": "",
          "type": "address"
        }
      ],
      "name": "liquidityLocks",
      "outputs": [
        {
          "internalType": "address",
          "name": "pair",
          "type": "address"
        },
        {
          "internalType": "uint256",
          "name": "unlockTime",
          "type": "uint256"
        }
      ],
      "stateMutability": "view",
      "type": "function"
    },
    {
      "inputs": [],
      "name": "owner",
      "outputs": [
        {
          "internalType": "address",
          "name": "",
          "type": "address"
        }
      ],
      "stateMutability": "view",
      "type": "function"
    },
    {
      "inputs": [],
      "name": "renounceOwnership",
      "outputs": [],
      "stateMutability": "nonpayable",
      "type": "function"
    },
    {
      "inputs": [],
      "name": "router",
      "outputs": [
        {
          "internalType": "contract IUniswapV2Router02",
          "name": "",
          "type": "address"
        }
      ],
      "stateMutability": "view",
      "type": "function"
    },
    {
      "inputs": [
        {
          "internalType": "address",
          "name": "newOwner",
          "type": "address"
        }
      ],
      "name": "transferOwnership",
      "outputs": [],
      "stateMutability": "nonpayable",
      "type": "function"
    },
    {
      "inputs": [
        {
          "internalType": "address",
          "name": "pair",
          "type": "address"
        }
      ],
      "name": "unlockLiquidity",
      "outputs": [],
      "stateMutability": "nonpayable",
      "type": "function"
    },
    {
      "inputs": [],
      "name": "weth",
      "outputs": [
        {
          "internalType": "address",
          "name": "",
          "type": "address"
        }
      ],
      "stateMutability": "view",
      "type": "function"
    },
    {
      "stateMutability": "payable",
      "type": "receive"
    }
  ],
  "transactionHash": "0x058ffed01f59eb21bb74f5887e40631d4c6ad7637e53d91a789dc0e1ddda67dc",
  "args": [
    "0xeE567Fe1712Faf6149d80dA1E6934E354124CfE3"
  ],
  "numDeployments": 18,
  "solcInputHash": "de39a025b7c413f4f3b4f509a791adcf",
  "bytecode": "0x60c080604052346200017e576200003090620018a2803803809162000025828562000183565b8339810190620001bd565b3315620001655760008054336001600160a01b03198216811783556040519293602092849260049284926001600160a01b03929083167f8be0079c531659141344cd1fd0a4f28419497f9722a3daafe3b4186f6b6457e08a80a31660808190526315ab88c960e31b82525afa91821562000159579162000124575b5060a0526040516116c39081620001df823960805181818160d0015281816102340152818161080f01528181610c030152818161138d01526114c2015260a0518181816101260152818161029501528181610a8601528181610b3f01528181610e3701528181610ea701528181610f4e015261111e0152f35b6200014a915060203d811162000151575b62000141818362000183565b810190620001bd565b38620000ab565b503d62000135565b604051903d90823e3d90fd5b604051631e4fbdf760e01b815260006004820152602490fd5b600080fd5b601f909101601f19168101906001600160401b03821190821017620001a757604052565b634e487b7160e01b600052604160045260246000fd5b908160209103126200017e57516001600160a01b03811681036200017e579056fe6080604052600436101561001b575b361561001957600080fd5b005b60003560e01c80633edf9a381461114d5780633fc8cef31461110857806346f2335e146110835780636cf5bb6314611032578063715018a614610fd957806377b76ec314610f765780637ae06e5814610a5c5780638b099b23146109ac5780638da5cb5b14610983578063c9c65396146107cd578063d58c66ab146105a1578063f2fde38b14610513578063f6f1e306146101045763f887ea400361000e57346100ff5760003660031901126100ff576040517f00000000000000000000000000000000000000000000000000000000000000006001600160a01b03168152602090f35b600080fd5b60a03660031901126100ff576101186111a2565b608435906001600160a01b037f00000000000000000000000000000000000000000000000000000000000000008116919081166024358184146104ce5784156104c75730905b6040519261016b8461122f565b8352602094858401528060408401523460608401526101c36080840191604435835260a0850197606435895260c0860152600160e086015261010085019360018060a01b031684526101bd8187611286565b85611376565b6060830151835160408501519251975193516001600160a01b0390811694929116904261012c8101106104b15760609460c4936040519a8b96879563f305d71960e01b87526004870152602486015260448501526064840152608483015261012c420160a483015260018060a01b037f0000000000000000000000000000000000000000000000000000000000000000165af191821561046b57600093600095600094610477575b506040830151858082116103b9575b50508560608401518181116102dc575b50856102d8866102bb7f0000000000000000000000000000000000000000000000000000000000000000878961148d565b604051938493846040919493926060820195825260208201520152565b0390f35b906102e691611461565b600080808084335af13d156103b4573d67ffffffffffffffff811161039e576040519061031c601f8201601f191686018361124c565b81526000843d92013e5b15610365579160008051602061166e83398151915260606102d89695936102bb95604051916000835233908301526040820152a191509192858761028a565b60405162461bcd60e51b8152600481018390526011602482015270115512081c99599d5b990819985a5b1959607a1b6044820152606490fd5b634e487b7160e01b600052604160045260246000fd5b610326565b6103c291611461565b835160405163a9059cbb60e01b81523360048201526024810183905291908390839060449082906000906001600160a01b03165af191821561046b5760008051602061166e8339815191529261043e575b508451604080516001600160a01b039092168252336020830152810191909152606090a1868561027a565b61045d90843d8611610464575b610455818361124c565b81019061126e565b5088610413565b503d61044b565b6040513d6000823e3d90fd5b919450925061049e91945060603d81116104aa575b610496818361124c565b810190611446565b9491939094928661026b565b503d61048c565b634e487b7160e01b600052601160045260246000fd5b339061015e565b60405162461bcd60e51b815260206004820152601f60248201527f557365206164644c697175696469747920666f722057455448207061697273006044820152606490fd5b346100ff5760203660031901126100ff5761052c6111a2565b610534611203565b6001600160a01b0390811690811561058857600054826bffffffffffffffffffffffff60a01b821617600055167f8be0079c531659141344cd1fd0a4f28419497f9722a3daafe3b4186f6b6457e0600080a3005b604051631e4fbdf760e01b815260006004820152602490fd5b346100ff576020806003193601126100ff576001600160a01b0390816105c56111a2565b169182600052600182526040600020838282541603610791576001015442106107535760005416330361071e576040516370a0823160e01b81523060048201528181602481865afa90811561046b576000916106f1575b5080156106b35760405163a9059cbb60e01b815233600482015260248101919091529080826044816000875af191821561046b577ffe96c81c48e39035c6e8009a9b1089e8c7a168b29219e979a16351116d080b7b92610696575b50826000526001815260006001604082208281550155604051338152a2005b6106ac90823d841161046457610455818361124c565b5083610677565b60405162461bcd60e51b81526004810183905260166024820152754e6f206c697175696469747920746f20756e6c6f636b60501b6044820152606490fd5b90508181813d8311610717575b610708818361124c565b810103126100ff57518361061c565b503d6106fe565b6064906040519062461bcd60e51b82526004820152600e60248201526d139bdd08185d5d1a1bdc9a5e995960921b6044820152fd5b60405162461bcd60e51b8152600481018390526016602482015275131a5c5d5a591a5d1e481cdd1a5b1b081b1bd8dad95960521b6044820152606490fd5b60405162461bcd60e51b8152600481018490526014602482015273131a5c5d5a591a5d1e481b9bdd081b1bd8dad95960621b6044820152606490fd5b346100ff5760403660031901126100ff576107e66111a2565b6107ee6111b8565b60405163c45a015560e01b8152602092916001600160a01b039184816004817f000000000000000000000000000000000000000000000000000000000000000087165afa801561046b578391600091610966575b5060405163e6a4390560e01b81526001600160a01b038681166004830152841660248201529491168585604481845afa94851561046b57600095610947575b5083851615610897575b50505060405191168152f35b6040516364e329cb60e11b81526001600160a01b038381166004830152841660248201529294509091908590829060449082906000905af190811561046b5760009161091a575b507fa92a2b95c8d8436f6ac4c673c61487364f877efb9534d4296fad8ef904546c948584808497816040519616865216941692a383808061088b565b61093a9150853d8711610940575b610932818361124c565b81019061146e565b856108de565b503d610928565b61095f919550863d881161094057610932818361124c565b9386610881565b61097d9150863d881161094057610932818361124c565b86610842565b346100ff5760003660031901126100ff576000546040516001600160a01b039091168152602090f35b346100ff5760403660031901126100ff57610a0460206109ca6111a2565b6109d26111b8565b604051636eb1769f60e11b81523060048201526001600160a01b03909116602482015292839190829081906044820190565b03916001600160a01b03165afa801561046b57600090610a2a575b602090604051908152f35b506020813d8211610a54575b81610a436020938361124c565b810103126100ff5760209051610a1f565b3d9150610a36565b60e03660031901126100ff57610a706111a2565b610a786111b8565b906001600160a01b038082167f000000000000000000000000000000000000000000000000000000000000000090911614908180610f40575b610efb5760c43515610ef45730915b60405192610acd8461122f565b6001600160a01b038381168552858116602086015260443560408601526064356060860152608435608086015260a43560a086015260c43560c0860152600060e08601521661010084015215610eda575b60e08201511580610e9f575b610e7e575b81516001600160a01b03908116907f0000000000000000000000000000000000000000000000000000000000000000168103610e6a575b5060e08201511580610e2f575b610e0e575b8151602083015160408401516060850151608086015160a08701516101008801516001600160a01b03968716999690811695919492939291164261012c8101106104b15760405162e8e33760e81b8152600481019a909a5260248a015260448901526064880152608487015260a486015260c48501524261012c0160e48501526060846101048160007f00000000000000000000000000000000000000000000000000000000000000006001600160a01b03165af190811561046b57600093600095600093610de5575b50604081015185808211610d40575b505060e08101511580610d33575b610c72575b906102d8936102bb9261148d565b90610c81866060840151611461565b60208381015160405163a9059cbb60e01b815233600482015260248101849052929692949190859060449082906000906001600160a01b03165af1801561046b576102d8966102bb9560008051602061166e83398151915292610d14575b50602083810151604080516001600160a01b039092168252339282019290925290810191909152606090a19192509350610c64565b610d2c9060203d60201161046457610455818361124c565b508a610cdf565b5085606082015111610c5f565b610d4991611461565b815160405163a9059cbb60e01b8152336004820152602481018390529190602090839060449082906000906001600160a01b03165af191821561046b5760008051602061166e83398151915292610dc6575b508251604080516001600160a01b039092168252336020830152810191909152606090a18685610c51565b610dde9060203d60201161046457610455818361124c565b5088610d9b565b9194509450610e02915060603d81116104aa57610496818361124c565b94919390949186610c42565b60208201516060830151610e2a916001600160a01b0316611376565b610b78565b5060208201517f00000000000000000000000000000000000000000000000000000000000000006001600160a01b0390811691161415610b73565b6040830151610e7891611376565b83610b66565b60208201516060830151610e9a916001600160a01b0316611286565b610b2f565b5060208201517f00000000000000000000000000000000000000000000000000000000000000006001600160a01b0390811691161415610b2a565b610eef6044356001600160a01b038316611286565b610b1e565b3391610ac0565b60405162461bcd60e51b815260206004820152601c60248201527f43616e6e6f742063726561746520574554482f574554482070616972000000006044820152606490fd5b506001600160a01b038381167f000000000000000000000000000000000000000000000000000000000000000090911614610ab1565b346100ff5760403660031901126100ff57610f8f6111a2565b6020610f996111b8565b6040516370a0823160e01b81526001600160a01b0391821660048201529283916024918391165afa801561046b57600090610a2a57602090604051908152f35b346100ff5760003660031901126100ff57610ff2611203565b600080546001600160a01b0319811682556001600160a01b03167f8be0079c531659141344cd1fd0a4f28419497f9722a3daafe3b4186f6b6457e08280a3005b346100ff5760203660031901126100ff576001600160a01b03806110546111a2565b1660009081526001602081815260409283902080549201548351949092166001600160a01b0316845283015290f35b346100ff576110d86020611096366111ce565b91906110a0611203565b60405163095ea7b360e01b81526001600160a01b03909116600482015260248101929092529092839190829060009082906044820190565b03926001600160a01b03165af1801561046b576110f157005b6100199060203d811161046457610455818361124c565b346100ff5760003660031901126100ff576040517f00000000000000000000000000000000000000000000000000000000000000006001600160a01b03168152602090f35b346100ff576110d86020611160366111ce565b919061116a611203565b60405163a9059cbb60e01b81526001600160a01b03909116600482015260248101929092529092839190829060009082906044820190565b600435906001600160a01b03821682036100ff57565b602435906001600160a01b03821682036100ff57565b60609060031901126100ff576001600160a01b039060043582811681036100ff579160243590811681036100ff579060443590565b6000546001600160a01b0316330361121757565b60405163118cdaa760e01b8152336004820152602490fd5b610120810190811067ffffffffffffffff82111761039e57604052565b90601f8019910116810190811067ffffffffffffffff82111761039e57604052565b908160209103126100ff575180151581036100ff5790565b6040516323b872dd60e01b8152336004820152306024820152604481018390526001600160a01b039190911691906020816064816000875af190811561046b57600091611358575b5015611313577f70c5f97fd0068e96984b8116fe83eefbff3b91244565bf311a3cba619b4ecbc7916080916040519182523360208301523060408301526060820152a1565b60405162461bcd60e51b815260206004820152601860248201527f5472616e73666572206f6620746f6b656e206661696c656400000000000000006044820152606490fd5b611370915060203d811161046457610455818361124c565b386112ce565b60405163095ea7b360e01b81526001600160a01b037f00000000000000000000000000000000000000000000000000000000000000008116600483015260248201849052909291906020908490604490829060009086165af192831561046b577ff4bf184b11bd224495c79981900c289537c9a3a3f5f4063cb3ac18d146a7076a9361141b575b50604080516001600160a01b039290921682526020820192909252a1565b6114329060203d811161046457610455818361124c565b50386113fd565b919082018092116104b157565b908160609103126100ff578051916040602083015192015190565b919082039182116104b157565b908160209103126100ff57516001600160a01b03811681036100ff5790565b60c00180519192909161149f57505050565b6040805163c45a015560e01b81526001600160a01b0394602093919084826004817f00000000000000000000000000000000000000000000000000000000000000008b165afa918215611662579161153293918693600092611643575b50855163e6a4390560e01b81526001600160a01b0391821660048201529216602483015290928391908290899082906044820190565b0392165afa9081156116385790859160009161161b575b50169384156115e15761155d845142611439565b93825183810181811067ffffffffffffffff82111761039e577f426f0c0a2e698e1e1dc15965aacaec6b35a143139f5ad496aff205755eefb805966115d994600192875289845287840191825289600052828852866000209351166bffffffffffffffffffffffff60a01b845416178355519101555142611439565b9051908152a2565b815162461bcd60e51b815260048101849052601360248201527214185a5c88191bd95cc81b9bdd08195e1a5cdd606a1b6044820152606490fd5b6116329150843d861161094057610932818361124c565b38611549565b82513d6000823e3d90fd5b61165b919250843d861161094057610932818361124c565b90386114fc565b84513d6000823e3d90fdfe64786171a92c067a2b6fc8416ccbf374042fa95c2b9922afd8ee73281533b46fa2646970667358221220cf32b483177c7dd623c6d4200888baf8f343015bc01f7e43f9a1dc736880143264736f6c63430008140033",
  "devdoc": {
    "errors": {
      "OwnableInvalidOwner(address)": [
        {
          "details": "The owner is not a valid owner account. (eg. `address(0)`)"
        }
      ],
      "OwnableUnauthorizedAccount(address)": [
        {
          "details": "The caller account is not authorized to perform an operation."
        }
      ]
    },
    "kind": "dev",
    "methods": {
      "owner()": {
        "details": "Returns the address of the current owner."
      },
      "renounceOwnership()": {
        "details": "Leaves the contract without owner. It will not be possible to call `onlyOwner` functions. Can only be called by the current owner. NOTE: Renouncing ownership will leave the contract without an owner, thereby disabling any functionality that is only available to the owner."
      },
      "transferOwnership(address)": {
        "details": "Transfers ownership of the contract to a new account (`newOwner`). Can only be called by the current owner."
      }
    },
    "version": 1
  },
  "userdoc": {
    "kind": "user",
    "methods": {},
    "version": 1
  },
  "storageLayout": {
    "storage": [
      {
        "astId": 8,
        "contract": "contracts/extensions/LiquidityManager.sol:LiquidityManager",
        "label": "_owner",
        "offset": 0,
        "slot": "0",
        "type": "t_address"
      },
      {
        "astId": 1839,
        "contract": "contracts/extensions/LiquidityManager.sol:LiquidityManager",
        "label": "liquidityLocks",
        "offset": 0,
        "slot": "1",
        "type": "t_mapping(t_address,t_struct(LockInfo)1806_storage)"
      }
    ],
    "types": {
      "t_address": {
        "encoding": "inplace",
        "label": "address",
        "numberOfBytes": "20"
      },
      "t_mapping(t_address,t_struct(LockInfo)1806_storage)": {
        "encoding": "mapping",
        "key": "t_address",
        "label": "mapping(address => struct LiquidityManager.LockInfo)",
        "numberOfBytes": "32",
        "value": "t_struct(LockInfo)1806_storage"
      },
      "t_struct(LockInfo)1806_storage": {
        "encoding": "inplace",
        "label": "struct LiquidityManager.LockInfo",
        "members": [
          {
            "astId": 1803,
            "contract": "contracts/extensions/LiquidityManager.sol:LiquidityManager",
            "label": "pair",
            "offset": 0,
            "slot": "0",
            "type": "t_address"
          },
          {
            "astId": 1805,
            "contract": "contracts/extensions/LiquidityManager.sol:LiquidityManager",
            "label": "unlockTime",
            "offset": 0,
            "slot": "1",
            "type": "t_uint256"
          }
        ],
        "numberOfBytes": "64"
      },
      "t_uint256": {
        "encoding": "inplace",
        "label": "uint256",
        "numberOfBytes": "32"
      }
    }
  }
}