{
  "address": "0xcb2cCcC8738F5D6e47f2bAe9130D79e78B0b748E",
  "abi": [
    {
      "inputs": [],
      "stateMutability": "nonpayable",
      "type": "constructor"
    },
    {
      "inputs": [
        {
          "internalType": "address",
          "name": "owner",
          "type": "address"
        }
      ],
      "name": "OwnableInvalidOwner",
      "type": "error"
    },
    {
      "inputs": [
        {
          "internalType": "address",
          "name": "account",
          "type": "address"
        }
      ],
      "name": "OwnableUnauthorizedAccount",
      "type": "error"
    },
    {
      "anonymous": false,
      "inputs": [
        {
          "indexed": true,
          "internalType": "address",
          "name": "previousOwner",
          "type": "address"
        },
        {
          "indexed": true,
          "internalType": "address",
          "name": "newOwner",
          "type": "address"
        }
      ],
      "name": "OwnershipTransferred",
      "type": "event"
    },
    {
      "inputs": [],
      "name": "PHASE_1_DURATION",
      "outputs": [
        {
          "internalType": "uint256",
          "name": "",
          "type": "uint256"
        }
      ],
      "stateMutability": "view",
      "type": "function"
    },
    {
      "inputs": [],
      "name": "PHASE_2_DURATION",
      "outputs": [
        {
          "internalType": "uint256",
          "name": "",
          "type": "uint256"
        }
      ],
      "stateMutability": "view",
      "type": "function"
    },
    {
      "inputs": [],
      "name": "PHASE_3_DURATION",
      "outputs": [
        {
          "internalType": "uint256",
          "name": "",
          "type": "uint256"
        }
      ],
      "stateMutability": "view",
      "type": "function"
    },
    {
      "inputs": [],
      "name": "getCurrentPhase",
      "outputs": [
        {
          "internalType": "uint8",
          "name": "",
          "type": "uint8"
        }
      ],
      "stateMutability": "view",
      "type": "function"
    },
    {
      "inputs": [],
      "name": "getTimeRemainingInCurrentPhase",
      "outputs": [
        {
          "internalType": "uint256",
          "name": "",
          "type": "uint256"
        }
      ],
      "stateMutability": "view",
      "type": "function"
    },
    {
      "inputs": [],
      "name": "launchTime",
      "outputs": [
        {
          "internalType": "uint256",
          "name": "",
          "type": "uint256"
        }
      ],
      "stateMutability": "view",
      "type": "function"
    },
    {
      "inputs": [],
      "name": "owner",
      "outputs": [
        {
          "internalType": "address",
          "name": "",
          "type": "address"
        }
      ],
      "stateMutability": "view",
      "type": "function"
    },
    {
      "inputs": [],
      "name": "renounceOwnership",
      "outputs": [],
      "stateMutability": "nonpayable",
      "type": "function"
    },
    {
      "inputs": [],
      "name": "tradingEnabled",
      "outputs": [
        {
          "internalType": "bool",
          "name": "",
          "type": "bool"
        }
      ],
      "stateMutability": "view",
      "type": "function"
    },
    {
      "inputs": [
        {
          "internalType": "address",
          "name": "newOwner",
          "type": "address"
        }
      ],
      "name": "transferOwnership",
      "outputs": [],
      "stateMutability": "nonpayable",
      "type": "function"
    },
    {
      "inputs": [
        {
          "internalType": "uint256",
          "name": "phase1Duration",
          "type": "uint256"
        },
        {
          "internalType": "uint256",
          "name": "phase2Duration",
          "type": "uint256"
        },
        {
          "internalType": "uint256",
          "name": "phase3Duration",
          "type": "uint256"
        }
      ],
      "name": "updatePhaseDurations",
      "outputs": [],
      "stateMutability": "nonpayable",
      "type": "function"
    }
  ],
  "transactionHash": "0x5296ba3af7f4fc87207e38a6b87a5f1b3e2cfb82118aecc8f111e18c667668f6",
  "args": [],
  "numDeployments": 1,
  "solcInputHash": "18b9be21a98ded387dcceca8ae29bdb7",
  "bytecode": "0x6080806040523461008d5733156100775760008054336001600160a01b03198216811783556040519290916001600160a01b0316907f8be0079c531659141344cd1fd0a4f28419497f9722a3daafe3b4186f6b6457e09080a3610e10600355615460600455620151806005556104b290816100938239f35b631e4fbdf760e01b815260006004820152602490fd5b600080fdfe608060408181526004908136101561001657600080fd5b600092833560e01c9081634ada218b14610310575080635539aa86146102f15780636839c1bd146102d2578063715018a614610275578063790ca4131461025657806384825faa146101c25780638da5cb5b1461019a578063938ece891461017c57806395b8b71b14610158578063a3a40ea51461012d5763f2fde38b1461009d57600080fd5b34610129576020366003190112610129576001600160a01b03823581811693919290849003610125576100ce610331565b831561010f57505082546001600160a01b0319811683178455167f8be0079c531659141344cd1fd0a4f28419497f9722a3daafe3b4186f6b6457e08380a380f35b51631e4fbdf760e01b8152908101849052602490fd5b8480fd5b8280fd5b83823461015457816003193601126101545760209060ff61014c61038d565b915191168152f35b5080fd5b8382346101545781600319360112610154576020906101756103fe565b9051908152f35b50903461012957826003193601126101295760209250549051908152f35b838234610154578160031936011261015457905490516001600160a01b039091168152602090f35b5034610129576060366003190112610129576101dc610331565b60ff600254166101fa57508035600355602435905560443560055580f35b906020608492519162461bcd60e51b8352820152603060248201527f43616e6e6f74206d6f64696679206475726174696f6e7320616674657220747260448201526f18591a5b99c81a5cc8195b98589b195960821b6064820152fd5b8382346101545781600319360112610154576020906001549051908152f35b83346102cf57806003193601126102cf5761028e610331565b80546001600160a01b03198116825581906001600160a01b03167f8be0079c531659141344cd1fd0a4f28419497f9722a3daafe3b4186f6b6457e08280a380f35b80fd5b8382346101545781600319360112610154576020906003549051908152f35b8382346101545781600319360112610154576020906005549051908152f35b84903461015457816003193601126101545760209060ff6002541615158152f35b6000546001600160a01b0316330361034557565b60405163118cdaa760e01b8152336004820152602490fd5b9190820391821161036a57565b634e487b7160e01b600052601160045260246000fd5b9190820180921161036a57565b60ff60025416156103f9576103a46001544261035d565b600354808210156103b6575050600190565b600454906103c48282610380565b8310156103d357505050600290565b6103e9916103e091610380565b60055490610380565b11156103f457600390565b600490565b600090565b60ff60025416156103f9576104156001544261035d565b60ff61041f61038d565b166001810361043857506104359060035461035d565b90565b6002810361045957506104359061045460035460045490610380565b61035d565b6003146104665750600090565b610435906104546103e06003546004549061038056fea2646970667358221220f66bc95ece83f88de088e50b23825c24525529e13bdc6c90d707bee50f459a6264736f6c63430008140033",
  "devdoc": {
    "errors": {
      "OwnableInvalidOwner(address)": [
        {
          "details": "The owner is not a valid owner account. (eg. `address(0)`)"
        }
      ],
      "OwnableUnauthorizedAccount(address)": [
        {
          "details": "The caller account is not authorized to perform an operation."
        }
      ]
    },
    "kind": "dev",
    "methods": {
      "owner()": {
        "details": "Returns the address of the current owner."
      },
      "renounceOwnership()": {
        "details": "Leaves the contract without owner. It will not be possible to call `onlyOwner` functions. Can only be called by the current owner. NOTE: Renouncing ownership will leave the contract without an owner, thereby disabling any functionality that is only available to the owner."
      },
      "transferOwnership(address)": {
        "details": "Transfers ownership of the contract to a new account (`newOwner`). Can only be called by the current owner."
      }
    },
    "version": 1
  },
  "userdoc": {
    "kind": "user",
    "methods": {},
    "version": 1
  },
  "storageLayout": {
    "storage": [
      {
        "astId": 387,
        "contract": "contracts/utils/TimeControl.sol:TimeControl",
        "label": "_owner",
        "offset": 0,
        "slot": "0",
        "type": "t_address"
      },
      {
        "astId": 5247,
        "contract": "contracts/utils/TimeControl.sol:TimeControl",
        "label": "launchTime",
        "offset": 0,
        "slot": "1",
        "type": "t_uint256"
      },
      {
        "astId": 5249,
        "contract": "contracts/utils/TimeControl.sol:TimeControl",
        "label": "tradingEnabled",
        "offset": 0,
        "slot": "2",
        "type": "t_bool"
      },
      {
        "astId": 5252,
        "contract": "contracts/utils/TimeControl.sol:TimeControl",
        "label": "PHASE_1_DURATION",
        "offset": 0,
        "slot": "3",
        "type": "t_uint256"
      },
      {
        "astId": 5255,
        "contract": "contracts/utils/TimeControl.sol:TimeControl",
        "label": "PHASE_2_DURATION",
        "offset": 0,
        "slot": "4",
        "type": "t_uint256"
      },
      {
        "astId": 5258,
        "contract": "contracts/utils/TimeControl.sol:TimeControl",
        "label": "PHASE_3_DURATION",
        "offset": 0,
        "slot": "5",
        "type": "t_uint256"
      }
    ],
    "types": {
      "t_address": {
        "encoding": "inplace",
        "label": "address",
        "numberOfBytes": "20"
      },
      "t_bool": {
        "encoding": "inplace",
        "label": "bool",
        "numberOfBytes": "1"
      },
      "t_uint256": {
        "encoding": "inplace",
        "label": "uint256",
        "numberOfBytes": "32"
      }
    }
  }
}