{
  "address": "0x546D6EcC872fF80d3E3a4f04cb2AF39ea222b13E",
  "abi": [
    {
      "inputs": [
        {
          "internalType": "string",
          "name": "name",
          "type": "string"
        },
        {
          "internalType": "string",
          "name": "symbol",
          "type": "string"
        },
        {
          "internalType": "uint256",
          "name": "totalSupply",
          "type": "uint256"
        },
        {
          "internalType": "address",
          "name": "_initialOwner",
          "type": "address"
        },
        {
          "internalType": "address[]",
          "name": "initialHolders",
          "type": "address[]"
        },
        {
          "internalType": "uint256[]",
          "name": "initialAmounts",
          "type": "uint256[]"
        },
        {
          "internalType": "address",
          "name": "liquidityManager",
          "type": "address"
        },
        {
          "internalType": "address",
          "name": "launchManager",
          "type": "address"
        },
        {
          "internalType": "bool",
          "name": "launchWithLiquidity",
          "type": "bool"
        }
      ],
      "stateMutability": "nonpayable",
      "type": "constructor"
    },
    {
      "inputs": [
        {
          "internalType": "address",
          "name": "spender",
          "type": "address"
        },
        {
          "internalType": "uint256",
          "name": "allowance",
          "type": "uint256"
        },
        {
          "internalType": "uint256",
          "name": "needed",
          "type": "uint256"
        }
      ],
      "name": "ERC20InsufficientAllowance",
      "type": "error"
    },
    {
      "inputs": [
        {
          "internalType": "address",
          "name": "sender",
          "type": "address"
        },
        {
          "internalType": "uint256",
          "name": "balance",
          "type": "uint256"
        },
        {
          "internalType": "uint256",
          "name": "needed",
          "type": "uint256"
        }
      ],
      "name": "ERC20InsufficientBalance",
      "type": "error"
    },
    {
      "inputs": [
        {
          "internalType": "address",
          "name": "approver",
          "type": "address"
        }
      ],
      "name": "ERC20InvalidApprover",
      "type": "error"
    },
    {
      "inputs": [
        {
          "internalType": "address",
          "name": "receiver",
          "type": "address"
        }
      ],
      "name": "ERC20InvalidReceiver",
      "type": "error"
    },
    {
      "inputs": [
        {
          "internalType": "address",
          "name": "sender",
          "type": "address"
        }
      ],
      "name": "ERC20InvalidSender",
      "type": "error"
    },
    {
      "inputs": [
        {
          "internalType": "address",
          "name": "spender",
          "type": "address"
        }
      ],
      "name": "ERC20InvalidSpender",
      "type": "error"
    },
    {
      "inputs": [
        {
          "internalType": "address",
          "name": "owner",
          "type": "address"
        }
      ],
      "name": "OwnableInvalidOwner",
      "type": "error"
    },
    {
      "inputs": [
        {
          "internalType": "address",
          "name": "account",
          "type": "address"
        }
      ],
      "name": "OwnableUnauthorizedAccount",
      "type": "error"
    },
    {
      "anonymous": false,
      "inputs": [
        {
          "indexed": true,
          "internalType": "address",
          "name": "account",
          "type": "address"
        },
        {
          "indexed": false,
          "internalType": "bool",
          "name": "status",
          "type": "bool"
        }
      ],
      "name": "AddressWhitelisted",
      "type": "event"
    },
    {
      "anonymous": false,
      "inputs": [
        {
          "indexed": true,
          "internalType": "address",
          "name": "owner",
          "type": "address"
        },
        {
          "indexed": true,
          "internalType": "address",
          "name": "spender",
          "type": "address"
        },
        {
          "indexed": false,
          "internalType": "uint256",
          "name": "value",
          "type": "uint256"
        }
      ],
      "name": "Approval",
      "type": "event"
    },
    {
      "anonymous": false,
      "inputs": [],
      "name": "InitialDistributionComplete",
      "type": "event"
    },
    {
      "anonymous": false,
      "inputs": [
        {
          "indexed": true,
          "internalType": "address",
          "name": "launchManager",
          "type": "address"
        },
        {
          "indexed": false,
          "internalType": "uint256",
          "name": "amount",
          "type": "uint256"
        }
      ],
      "name": "LaunchManagerApproved",
      "type": "event"
    },
    {
      "anonymous": false,
      "inputs": [
        {
          "indexed": true,
          "internalType": "address",
          "name": "liquidityManager",
          "type": "address"
        },
        {
          "indexed": false,
          "internalType": "uint256",
          "name": "amount",
          "type": "uint256"
        }
      ],
      "name": "LiquidityApproved",
      "type": "event"
    },
    {
      "anonymous": false,
      "inputs": [
        {
          "indexed": true,
          "internalType": "address",
          "name": "previousOwner",
          "type": "address"
        },
        {
          "indexed": true,
          "internalType": "address",
          "name": "newOwner",
          "type": "address"
        }
      ],
      "name": "OwnershipTransferred",
      "type": "event"
    },
    {
      "anonymous": false,
      "inputs": [
        {
          "indexed": false,
          "internalType": "uint256",
          "name": "timestamp",
          "type": "uint256"
        }
      ],
      "name": "TradingEnabled",
      "type": "event"
    },
    {
      "anonymous": false,
      "inputs": [
        {
          "indexed": true,
          "internalType": "address",
          "name": "from",
          "type": "address"
        },
        {
          "indexed": true,
          "internalType": "address",
          "name": "to",
          "type": "address"
        },
        {
          "indexed": false,
          "internalType": "uint256",
          "name": "value",
          "type": "uint256"
        }
      ],
      "name": "Transfer",
      "type": "event"
    },
    {
      "inputs": [
        {
          "internalType": "address",
          "name": "owner",
          "type": "address"
        },
        {
          "internalType": "address",
          "name": "spender",
          "type": "address"
        }
      ],
      "name": "allowance",
      "outputs": [
        {
          "internalType": "uint256",
          "name": "",
          "type": "uint256"
        }
      ],
      "stateMutability": "view",
      "type": "function"
    },
    {
      "inputs": [
        {
          "internalType": "address",
          "name": "spender",
          "type": "address"
        },
        {
          "internalType": "uint256",
          "name": "value",
          "type": "uint256"
        }
      ],
      "name": "approve",
      "outputs": [
        {
          "internalType": "bool",
          "name": "",
          "type": "bool"
        }
      ],
      "stateMutability": "nonpayable",
      "type": "function"
    },
    {
      "inputs": [
        {
          "internalType": "address",
          "name": "launchManager",
          "type": "address"
        },
        {
          "internalType": "uint256",
          "name": "amount",
          "type": "uint256"
        }
      ],
      "name": "approveLaunchManager",
      "outputs": [],
      "stateMutability": "nonpayable",
      "type": "function"
    },
    {
      "inputs": [
        {
          "internalType": "address",
          "name": "liquidityManager",
          "type": "address"
        },
        {
          "internalType": "uint256",
          "name": "amount",
          "type": "uint256"
        }
      ],
      "name": "approveLiquidityManager",
      "outputs": [],
      "stateMutability": "nonpayable",
      "type": "function"
    },
    {
      "inputs": [
        {
          "internalType": "address",
          "name": "account",
          "type": "address"
        }
      ],
      "name": "balanceOf",
      "outputs": [
        {
          "internalType": "uint256",
          "name": "",
          "type": "uint256"
        }
      ],
      "stateMutability": "view",
      "type": "function"
    },
    {
      "inputs": [],
      "name": "completeInitialDistribution",
      "outputs": [],
      "stateMutability": "nonpayable",
      "type": "function"
    },
    {
      "inputs": [],
      "name": "decimals",
      "outputs": [
        {
          "internalType": "uint8",
          "name": "",
          "type": "uint8"
        }
      ],
      "stateMutability": "view",
      "type": "function"
    },
    {
      "inputs": [],
      "name": "enableTrading",
      "outputs": [],
      "stateMutability": "nonpayable",
      "type": "function"
    },
    {
      "inputs": [
        {
          "internalType": "address",
          "name": "",
          "type": "address"
        }
      ],
      "name": "isWhitelisted",
      "outputs": [
        {
          "internalType": "bool",
          "name": "",
          "type": "bool"
        }
      ],
      "stateMutability": "view",
      "type": "function"
    },
    {
      "inputs": [],
      "name": "launchBlock",
      "outputs": [
        {
          "internalType": "uint256",
          "name": "",
          "type": "uint256"
        }
      ],
      "stateMutability": "view",
      "type": "function"
    },
    {
      "inputs": [],
      "name": "launchTime",
      "outputs": [
        {
          "internalType": "uint256",
          "name": "",
          "type": "uint256"
        }
      ],
      "stateMutability": "view",
      "type": "function"
    },
    {
      "inputs": [],
      "name": "name",
      "outputs": [
        {
          "internalType": "string",
          "name": "",
          "type": "string"
        }
      ],
      "stateMutability": "view",
      "type": "function"
    },
    {
      "inputs": [],
      "name": "owner",
      "outputs": [
        {
          "internalType": "address",
          "name": "",
          "type": "address"
        }
      ],
      "stateMutability": "view",
      "type": "function"
    },
    {
      "inputs": [],
      "name": "renounceOwnership",
      "outputs": [],
      "stateMutability": "nonpayable",
      "type": "function"
    },
    {
      "inputs": [],
      "name": "symbol",
      "outputs": [
        {
          "internalType": "string",
          "name": "",
          "type": "string"
        }
      ],
      "stateMutability": "view",
      "type": "function"
    },
    {
      "inputs": [],
      "name": "tokensToDistribute",
      "outputs": [
        {
          "internalType": "uint256",
          "name": "",
          "type": "uint256"
        }
      ],
      "stateMutability": "view",
      "type": "function"
    },
    {
      "inputs": [],
      "name": "totalSupply",
      "outputs": [
        {
          "internalType": "uint256",
          "name": "",
          "type": "uint256"
        }
      ],
      "stateMutability": "view",
      "type": "function"
    },
    {
      "inputs": [],
      "name": "tradingEnabled",
      "outputs": [
        {
          "internalType": "bool",
          "name": "",
          "type": "bool"
        }
      ],
      "stateMutability": "view",
      "type": "function"
    },
    {
      "inputs": [
        {
          "internalType": "address",
          "name": "to",
          "type": "address"
        },
        {
          "internalType": "uint256",
          "name": "value",
          "type": "uint256"
        }
      ],
      "name": "transfer",
      "outputs": [
        {
          "internalType": "bool",
          "name": "",
          "type": "bool"
        }
      ],
      "stateMutability": "nonpayable",
      "type": "function"
    },
    {
      "inputs": [
        {
          "internalType": "address",
          "name": "from",
          "type": "address"
        },
        {
          "internalType": "address",
          "name": "to",
          "type": "address"
        },
        {
          "internalType": "uint256",
          "name": "value",
          "type": "uint256"
        }
      ],
      "name": "transferFrom",
      "outputs": [
        {
          "internalType": "bool",
          "name": "",
          "type": "bool"
        }
      ],
      "stateMutability": "nonpayable",
      "type": "function"
    },
    {
      "inputs": [
        {
          "internalType": "address",
          "name": "newOwner",
          "type": "address"
        }
      ],
      "name": "transferOwnership",
      "outputs": [],
      "stateMutability": "nonpayable",
      "type": "function"
    },
    {
      "inputs": [
        {
          "internalType": "address",
          "name": "account",
          "type": "address"
        },
        {
          "internalType": "bool",
          "name": "status",
          "type": "bool"
        }
      ],
      "name": "whitelistAddress",
      "outputs": [],
      "stateMutability": "nonpayable",
      "type": "function"
    }
  ],
  "transactionHash": "0x279d1635ed2fab908e8e06c71860f126d2256b0c1d90e8db96ada3acc4406765",
  "args": [
    "Template Token 2",
    "TMPL2",
    "1000000000000000000000000",
    "0xeBfE85F3a3A4A78E779E0F2d94B532743C9F3bA0",
    [
      "0xb174659C69bC97b7D1Be4d8012d80cD0A374194e",
      "0xEa4d95CC1c1bB90d398bEd9DdF5dAE3D64b85f6B",
      "0xF8dA925Da2695c484b687c236A1e5beCB9F3F81C",
      "0xba884a1a579288680af80092974ae308384D3588"
    ],
    [
      "100000000000000000000",
      "200000000000000000000",
      "500000000000000000000",
      "1000000000000000000000"
    ],
    "0xebc9642aD5A355D3D4183243A870F71d4fA9564E",
    "0x3b9bA781797b57872687Ce5d5219A1A4Bc0e85ea",
    false
  ],
  "numDeployments": 40,
  "solcInputHash": "17f42686fb9b765a49a80cf6e8115fb8",
  "bytecode": "0x608060405234620008ac576200178b803803806200001d81620008dd565b92833981019061012081830312620008ac5780516001600160401b038111620008ac57826200004e91830162000903565b60208201519092906001600160401b038111620008ac57816200007391840162000903565b92604083015190620000886060850162000975565b60808501519094906001600160401b038111620008ac5781019184601f84011215620008ac57825192620000c6620000c0856200098a565b620008dd565b9360208086838152019160051b83010191878311620008ac57602001905b828210620008c25750505060a08201516001600160401b038111620008ac5782019480601f87011215620008ac57855162000123620000c0826200098a565b9660208089848152019260051b820101928311620008ac57602001905b828210620008b1575050506200015960c0830162000975565b966101006200016b60e0850162000975565b930151918215158303620008ac578051906001600160401b0382116200077e5760035490600182811c92168015620008a1575b60208310146200075d5781601f8493116200082f575b50602090601f8311600114620007a05760009262000794575b50508160011b916000199060031b1c1916176003555b8051906001600160401b0382116200077e5760045490600182811c9216801562000773575b60208310146200075d5781601f849311620006eb575b50602090601f8311600114620006605760009262000654575b50508160011b916000199060031b1c1916176004555b6001600160a01b038681169790949088156200063b57600580546001600160a01b031981168b17909155604051908a9088167f8be0079c531659141344cd1fd0a4f28419497f9722a3daafe3b4186f6b6457e0600080a38551885103620005f95750600a855111620005a9576009976000895560005b86518110156200034b5787620002da8289620009a2565b511615158062000335575b62000314575b6000198114620002fe57600101620002c3565b634e487b7160e01b600052601160045260246000fd5b6200032d62000324828b620009a2565b518b54620009cd565b8a55620002eb565b5062000342818a620009a2565b511515620002e5565b5088939496955089838554116200055a576200036a84600254620009cd565b600255806000526000602052604060002084815401905560007fddf252ad1be2c89b69c2b068fc378daa952ba7f163c4a11628f55a4df523b3ef6020604051878152a38560055416600052600a60205260406000209560ff199660018882541617905580881697848915159788620004f3575b5050508216938462000462575b505050508162000456575b506200040c575b604051610cfa908162000a718239f35b81600052600a60205260016040600020918254161790557faf367c7d20ce5b2ab6da56afd0c9c39b00ba995263c60292a3e1ee3781fd4885602060405160018152a28080620003fc565b905082141583620003f5565b548303928311620002fe57826200049f85947f48eba0fc9bfd43465ccb41583e5c30f0a5f6eecfd2117414d95afaaefe38be3c94602094620009db565b604051908152a280600052600a6020526040600020600184825416179055807faf367c7d20ce5b2ab6da56afd0c9c39b00ba995263c60292a3e1ee3781fd4885602060405160018152a284808080620003ea565b156200052957620005059184620009db565b876000805160206200176b8339815191526020604051878152a25b888481620003dd565b508554620005389184620009db565b876000805160206200176b83398151915260208754604051908152a262000520565b60405162461bcd60e51b815260206004820152602160248201527f446973747269627574696f6e206578636565647320746f74616c20737570706c6044820152607960f81b6064820152608490fd5b60405162461bcd60e51b815260206004820152602260248201527f4d6178696d756d20313020696e697469616c20686f6c6465727320616c6c6f77604482015261195960f21b6064820152608490fd5b62461bcd60e51b815260206004820152601660248201527f417272617973206c656e677468206d69736d61746368000000000000000000006044820152606490fd5b604051631e4fbdf760e01b815260006004820152602490fd5b01519050388062000237565b600460009081527f8a35acfbc15ff81a39ae7d344fd709f28e8600b4aa8c65c6b64bfe7fe36bd19b9350601f198516905b818110620006d25750908460019594939210620006b8575b505050811b016004556200024d565b015160001960f88460031b161c19169055388080620006a9565b9293602060018192878601518155019501930162000691565b60046000529091507f8a35acfbc15ff81a39ae7d344fd709f28e8600b4aa8c65c6b64bfe7fe36bd19b601f840160051c81016020851062000755575b90849392915b601f830160051c82018110620007455750506200021e565b600081558594506001016200072d565b508062000727565b634e487b7160e01b600052602260045260246000fd5b91607f169162000208565b634e487b7160e01b600052604160045260246000fd5b015190503880620001cd565b6003600090815293507fc2575a0e9e593c00f959f8c92f12db2869c3395a3b0502d05e2516446f71f85b91905b601f198416851062000813576001945083601f19811610620007f9575b505050811b01600355620001e3565b015160001960f88460031b161c19169055388080620007ea565b81810151835560209485019460019093019290910190620007cd565b60036000529091507fc2575a0e9e593c00f959f8c92f12db2869c3395a3b0502d05e2516446f71f85b601f840160051c81016020851062000899575b90849392915b601f830160051c8201811062000889575050620001b4565b6000815585945060010162000871565b50806200086b565b91607f16916200019e565b600080fd5b815181526020918201910162000140565b60208091620008d18462000975565b815201910190620000e4565b6040519190601f01601f191682016001600160401b038111838210176200077e57604052565b919080601f84011215620008ac5782516001600160401b0381116200077e5760209062000939601f8201601f19168301620008dd565b92818452828287010111620008ac5760005b8181106200096157508260009394955001015290565b85810183015184820184015282016200094b565b51906001600160a01b0382168203620008ac57565b6001600160401b0381116200077e5760051b60200190565b8051821015620009b75760209160051b010190565b634e487b7160e01b600052603260045260246000fd5b91908201809211620002fe57565b6001600160a01b0390811691821562000a57571691821562000a3e5760207f8c5be1e5ebec7d5bd14f71427d1e84f3dd0314c0f7b2291e5b200ac8c7c3b925918360005260018252604060002085600052825280604060002055604051908152a3565b604051634a1406b160e11b815260006004820152602490fd5b60405163e602df0560e01b815260006004820152602490fdfe6080604081815260048036101561001557600080fd5b600092833560e01c90816306fdde03146109b857508063095ea7b31461098e57806318160ddd1461096f57806323b872dd1461087c578063313ce567146108605780633a1a8c91146107b45780633af32abf146107765780634ada218b1461074f57806367a80efd1461073057806370a08231146106f9578063715018a614610699578063790ca4131461067a5780638a8c523c146105c65780638da5cb5b1461059d57806395d89b411461047d578063a9059cbb1461044c578063b9a45aac146103ca578063bd20cb4e146102c7578063d00efb2f146102a8578063dd62ed3e1461025b578063f0a1b12c146101a75763f2fde38b1461011557600080fd5b346101a35760203660031901126101a35761012e610af6565b90610137610b27565b6001600160a01b0391821692831561018d575050600554826bffffffffffffffffffffffff60a01b821617600555167f8be0079c531659141344cd1fd0a4f28419497f9722a3daafe3b4186f6b6457e08380a380f35b51631e4fbdf760e01b8152908101849052602490fd5b8280fd5b5090346101a357806003193601126101a3576101c1610af6565b90602435916101ce610b27565b6001600160a01b038116938415610218575091602091610210827ff7fcef9d27f27936ac77bf8d525519fdfc6ceabfcb465dd65a68a3b38436248b9533610c31565b51908152a280f35b606490602084519162461bcd60e51b8352820152601d60248201527f496e76616c6964206c61756e63684d616e6167657220616464726573730000006044820152fd5b5050346102a457806003193601126102a45780602092610279610af6565b610281610b11565b6001600160a01b0391821683526001865283832091168252845220549051908152f35b5080fd5b5050346102a457816003193601126102a4576020906007549051908152f35b50346101a357826003193601126101a3576005546001600160a01b0316331480156103b5575b15610382576008549160ff83166103305760ff198316600117600855837e91797718383457eafcb8600ff903ce41cd8e28b20bc5a8df996532910b85dd8180a180f35b906020608492519162461bcd60e51b8352820152602660248201527f496e697469616c20646973747269627574696f6e20616c726561647920636f6d6044820152651c1b195d195960d21b6064820152fd5b6020606492519162461bcd60e51b8352820152600e60248201526d139bdd08185d5d1a1bdc9a5e995960921b6044820152fd5b50338352600a60205260ff82842054166102ed565b5050346102a457806003193601126102a4576103e4610af6565b60243590811515809203610448577faf367c7d20ce5b2ab6da56afd0c9c39b00ba995263c60292a3e1ee3781fd48859160209161041f610b27565b6001600160a01b0316808652600a8352848620805460ff191660ff84161790559351908152a280f35b8380fd5b5050346102a457806003193601126102a45760209061047661046c610af6565b6024359033610b53565b5160018152f35b509190346102a457816003193601126102a457805190828454600181811c90808316928315610593575b602093848410811461058057838852908115610564575060011461050f575b505050829003601f01601f191682019267ffffffffffffffff8411838510176104fc57508291826104f8925282610aad565b0390f35b634e487b7160e01b815260418552602490fd5b8787529192508591837f8a35acfbc15ff81a39ae7d344fd709f28e8600b4aa8c65c6b64bfe7fe36bd19b5b83851061055057505050508301013880806104c6565b80548886018301529301928490820161053a565b60ff1916878501525050151560051b84010190503880806104c6565b634e487b7160e01b895260228a52602489fd5b91607f16916104a7565b5050346102a457816003193601126102a45760055490516001600160a01b039091168152602090f35b50346101a357826003193601126101a3576105df610b27565b6005549060ff8260a01c16610637575060ff60a01b1916600160a01b176005554260068190554360075590519081527fb3da2db3dfc3778f99852546c6e9ab39ec253f9de7b0847afec61bd27878e92390602090a180f35b606490602084519162461bcd60e51b8352820152601760248201527f54726164696e6720616c726561647920656e61626c65640000000000000000006044820152fd5b5050346102a457816003193601126102a4576020906006549051908152f35b83346106f657806003193601126106f6576106b2610b27565b600580546001600160a01b0319811690915581906001600160a01b03167f8be0079c531659141344cd1fd0a4f28419497f9722a3daafe3b4186f6b6457e08280a380f35b80fd5b5050346102a45760203660031901126102a45760209181906001600160a01b03610721610af6565b16815280845220549051908152f35b5050346102a457816003193601126102a4576020906009549051908152f35b5050346102a457816003193601126102a45760209060ff60055460a01c1690519015158152f35b5050346102a45760203660031901126102a45760209160ff9082906001600160a01b036107a1610af6565b168152600a855220541690519015158152f35b5090346101a357806003193601126101a3576107ce610af6565b90602435916107db610b27565b6001600160a01b03811693841561081d575091602091610210827f48eba0fc9bfd43465ccb41583e5c30f0a5f6eecfd2117414d95afaaefe38be3c9533610c31565b606490602084519162461bcd60e51b8352820152602060248201527f496e76616c6964206c69717569646974794d616e6167657220616464726573736044820152fd5b5050346102a457816003193601126102a4576020905160128152f35b5082346106f65760603660031901126106f657610897610af6565b61089f610b11565b916044359360018060a01b0383168083526001602052868320338452602052868320549160001983106108db575b602088610476898989610b53565b86831061094357811561092c57331561091557508252600160209081528683203384528152918690209085900390558290610476876108cd565b8751634a1406b160e11b8152908101849052602490fd5b875163e602df0560e01b8152908101849052602490fd5b8751637dc7a0d960e11b8152339181019182526020820193909352604081018790528291506060010390fd5b5050346102a457816003193601126102a4576020906002549051908152f35b5050346102a457806003193601126102a4576020906104766109ae610af6565b6024359033610c31565b84915083346101a357826003193601126101a35782600354600181811c90808316928315610aa3575b602093848410811461058057838852908115610a875750600114610a3157505050829003601f01601f191682019267ffffffffffffffff8411838510176104fc57508291826104f8925282610aad565b600387529192508591837fc2575a0e9e593c00f959f8c92f12db2869c3395a3b0502d05e2516446f71f85b5b838510610a7357505050508301018580806104c6565b805488860183015293019284908201610a5d565b60ff1916878501525050151560051b84010190508580806104c6565b91607f16916109e1565b6020808252825181830181905290939260005b828110610ae257505060409293506000838284010152601f8019910116010190565b818101860151848201604001528501610ac0565b600435906001600160a01b0382168203610b0c57565b600080fd5b602435906001600160a01b0382168203610b0c57565b6005546001600160a01b03163303610b3b57565b60405163118cdaa760e01b8152336004820152602490fd5b916001600160a01b03808416928315610c185716928315610bff5760009083825281602052604082205490838210610bcd575091604082827fddf252ad1be2c89b69c2b068fc378daa952ba7f163c4a11628f55a4df523b3ef958760209652828652038282205586815220818154019055604051908152a3565b60405163391434e360e21b81526001600160a01b03919091166004820152602481019190915260448101839052606490fd5b60405163ec442f0560e01b815260006004820152602490fd5b604051634b637e8f60e11b815260006004820152602490fd5b6001600160a01b03908116918215610cab5716918215610c925760207f8c5be1e5ebec7d5bd14f71427d1e84f3dd0314c0f7b2291e5b200ac8c7c3b925918360005260018252604060002085600052825280604060002055604051908152a3565b604051634a1406b160e11b815260006004820152602490fd5b60405163e602df0560e01b815260006004820152602490fdfea2646970667358221220ce241fff66f980ae1c0704a35015f1373bda3148469287f3cc369f0b3871ce5a64736f6c63430008140033f7fcef9d27f27936ac77bf8d525519fdfc6ceabfcb465dd65a68a3b38436248b",
  "devdoc": {
    "errors": {
      "ERC20InsufficientAllowance(address,uint256,uint256)": [
        {
          "details": "Indicates a failure with the `spender`s `allowance`. Used in transfers.",
          "params": {
            "allowance": "Amount of tokens a `spender` is allowed to operate with.",
            "needed": "Minimum amount required to perform a transfer.",
            "spender": "Address that may be allowed to operate on tokens without being their owner."
          }
        }
      ],
      "ERC20InsufficientBalance(address,uint256,uint256)": [
        {
          "details": "Indicates an error related to the current `balance` of a `sender`. Used in transfers.",
          "params": {
            "balance": "Current balance for the interacting account.",
            "needed": "Minimum amount required to perform a transfer.",
            "sender": "Address whose tokens are being transferred."
          }
        }
      ],
      "ERC20InvalidApprover(address)": [
        {
          "details": "Indicates a failure with the `approver` of a token to be approved. Used in approvals.",
          "params": {
            "approver": "Address initiating an approval operation."
          }
        }
      ],
      "ERC20InvalidReceiver(address)": [
        {
          "details": "Indicates a failure with the token `receiver`. Used in transfers.",
          "params": {
            "receiver": "Address to which tokens are being transferred."
          }
        }
      ],
      "ERC20InvalidSender(address)": [
        {
          "details": "Indicates a failure with the token `sender`. Used in transfers.",
          "params": {
            "sender": "Address whose tokens are being transferred."
          }
        }
      ],
      "ERC20InvalidSpender(address)": [
        {
          "details": "Indicates a failure with the `spender` to be approved. Used in approvals.",
          "params": {
            "spender": "Address that may be allowed to operate on tokens without being their owner."
          }
        }
      ],
      "OwnableInvalidOwner(address)": [
        {
          "details": "The owner is not a valid owner account. (eg. `address(0)`)"
        }
      ],
      "OwnableUnauthorizedAccount(address)": [
        {
          "details": "The caller account is not authorized to perform an operation."
        }
      ]
    },
    "events": {
      "Approval(address,address,uint256)": {
        "details": "Emitted when the allowance of a `spender` for an `owner` is set by a call to {approve}. `value` is the new allowance."
      },
      "Transfer(address,address,uint256)": {
        "details": "Emitted when `value` tokens are moved from one account (`from`) to another (`to`). Note that `value` may be zero."
      }
    },
    "kind": "dev",
    "methods": {
      "allowance(address,address)": {
        "details": "See {IERC20-allowance}."
      },
      "approve(address,uint256)": {
        "details": "See {IERC20-approve}. NOTE: If `value` is the maximum `uint256`, the allowance is not updated on `transferFrom`. This is semantically equivalent to an infinite approval. Requirements: - `spender` cannot be the zero address."
      },
      "balanceOf(address)": {
        "details": "See {IERC20-balanceOf}."
      },
      "decimals()": {
        "details": "Returns the number of decimals used to get its user representation. For example, if `decimals` equals `2`, a balance of `505` tokens should be displayed to a user as `5.05` (`505 / 10 ** 2`). Tokens usually opt for a value of 18, imitating the relationship between Ether and Wei. This is the default value returned by this function, unless it's overridden. NOTE: This information is only used for _display_ purposes: it in no way affects any of the arithmetic of the contract, including {IERC20-balanceOf} and {IERC20-transfer}."
      },
      "name()": {
        "details": "Returns the name of the token."
      },
      "owner()": {
        "details": "Returns the address of the current owner."
      },
      "renounceOwnership()": {
        "details": "Leaves the contract without owner. It will not be possible to call `onlyOwner` functions. Can only be called by the current owner. NOTE: Renouncing ownership will leave the contract without an owner, thereby disabling any functionality that is only available to the owner."
      },
      "symbol()": {
        "details": "Returns the symbol of the token, usually a shorter version of the name."
      },
      "totalSupply()": {
        "details": "See {IERC20-totalSupply}."
      },
      "transfer(address,uint256)": {
        "details": "See {IERC20-transfer}. Requirements: - `to` cannot be the zero address. - the caller must have a balance of at least `value`."
      },
      "transferFrom(address,address,uint256)": {
        "details": "See {IERC20-transferFrom}. Skips emitting an {Approval} event indicating an allowance update. This is not required by the ERC. See {xref-ERC20-_approve-address-address-uint256-bool-}[_approve]. NOTE: Does not update the allowance if the current allowance is the maximum `uint256`. Requirements: - `from` and `to` cannot be the zero address. - `from` must have a balance of at least `value`. - the caller must have allowance for ``from``'s tokens of at least `value`."
      },
      "transferOwnership(address)": {
        "details": "Transfers ownership of the contract to a new account (`newOwner`). Can only be called by the current owner."
      }
    },
    "version": 1
  },
  "userdoc": {
    "kind": "user",
    "methods": {},
    "version": 1
  },
  "storageLayout": {
    "storage": [
      {
        "astId": 686,
        "contract": "contracts/core/TokenTemplate.sol:TokenTemplate",
        "label": "_balances",
        "offset": 0,
        "slot": "0",
        "type": "t_mapping(t_address,t_uint256)"
      },
      {
        "astId": 692,
        "contract": "contracts/core/TokenTemplate.sol:TokenTemplate",
        "label": "_allowances",
        "offset": 0,
        "slot": "1",
        "type": "t_mapping(t_address,t_mapping(t_address,t_uint256))"
      },
      {
        "astId": 694,
        "contract": "contracts/core/TokenTemplate.sol:TokenTemplate",
        "label": "_totalSupply",
        "offset": 0,
        "slot": "2",
        "type": "t_uint256"
      },
      {
        "astId": 696,
        "contract": "contracts/core/TokenTemplate.sol:TokenTemplate",
        "label": "_name",
        "offset": 0,
        "slot": "3",
        "type": "t_string_storage"
      },
      {
        "astId": 698,
        "contract": "contracts/core/TokenTemplate.sol:TokenTemplate",
        "label": "_symbol",
        "offset": 0,
        "slot": "4",
        "type": "t_string_storage"
      },
      {
        "astId": 387,
        "contract": "contracts/core/TokenTemplate.sol:TokenTemplate",
        "label": "_owner",
        "offset": 0,
        "slot": "5",
        "type": "t_address"
      },
      {
        "astId": 2499,
        "contract": "contracts/core/TokenTemplate.sol:TokenTemplate",
        "label": "tradingEnabled",
        "offset": 20,
        "slot": "5",
        "type": "t_bool"
      },
      {
        "astId": 2501,
        "contract": "contracts/core/TokenTemplate.sol:TokenTemplate",
        "label": "launchTime",
        "offset": 0,
        "slot": "6",
        "type": "t_uint256"
      },
      {
        "astId": 2503,
        "contract": "contracts/core/TokenTemplate.sol:TokenTemplate",
        "label": "launchBlock",
        "offset": 0,
        "slot": "7",
        "type": "t_uint256"
      },
      {
        "astId": 2505,
        "contract": "contracts/core/TokenTemplate.sol:TokenTemplate",
        "label": "_initialDistributionComplete",
        "offset": 0,
        "slot": "8",
        "type": "t_bool"
      },
      {
        "astId": 2507,
        "contract": "contracts/core/TokenTemplate.sol:TokenTemplate",
        "label": "tokensToDistribute",
        "offset": 0,
        "slot": "9",
        "type": "t_uint256"
      },
      {
        "astId": 2511,
        "contract": "contracts/core/TokenTemplate.sol:TokenTemplate",
        "label": "isWhitelisted",
        "offset": 0,
        "slot": "10",
        "type": "t_mapping(t_address,t_bool)"
      }
    ],
    "types": {
      "t_address": {
        "encoding": "inplace",
        "label": "address",
        "numberOfBytes": "20"
      },
      "t_bool": {
        "encoding": "inplace",
        "label": "bool",
        "numberOfBytes": "1"
      },
      "t_mapping(t_address,t_bool)": {
        "encoding": "mapping",
        "key": "t_address",
        "label": "mapping(address => bool)",
        "numberOfBytes": "32",
        "value": "t_bool"
      },
      "t_mapping(t_address,t_mapping(t_address,t_uint256))": {
        "encoding": "mapping",
        "key": "t_address",
        "label": "mapping(address => mapping(address => uint256))",
        "numberOfBytes": "32",
        "value": "t_mapping(t_address,t_uint256)"
      },
      "t_mapping(t_address,t_uint256)": {
        "encoding": "mapping",
        "key": "t_address",
        "label": "mapping(address => uint256)",
        "numberOfBytes": "32",
        "value": "t_uint256"
      },
      "t_string_storage": {
        "encoding": "bytes",
        "label": "string",
        "numberOfBytes": "32"
      },
      "t_uint256": {
        "encoding": "inplace",
        "label": "uint256",
        "numberOfBytes": "32"
      }
    }
  }
}