{
  "address": "0x0CBc9B63D6A03d450E5d5aB87CC610e9cfa12D6B",
  "abi": [
    {
      "inputs": [
        {
          "internalType": "address",
          "name": "_feeCollector",
          "type": "address"
        },
        {
          "internalType": "uint256",
          "name": "_creationFee",
          "type": "uint256"
        }
      ],
      "stateMutability": "nonpayable",
      "type": "constructor"
    },
    {
      "inputs": [
        {
          "internalType": "address",
          "name": "owner",
          "type": "address"
        }
      ],
      "name": "OwnableInvalidOwner",
      "type": "error"
    },
    {
      "inputs": [
        {
          "internalType": "address",
          "name": "account",
          "type": "address"
        }
      ],
      "name": "OwnableUnauthorizedAccount",
      "type": "error"
    },
    {
      "anonymous": false,
      "inputs": [
        {
          "indexed": false,
          "internalType": "uint256",
          "name": "oldFee",
          "type": "uint256"
        },
        {
          "indexed": false,
          "internalType": "uint256",
          "name": "newFee",
          "type": "uint256"
        }
      ],
      "name": "CreationFeeUpdated",
      "type": "event"
    },
    {
      "anonymous": false,
      "inputs": [
        {
          "indexed": true,
          "internalType": "address",
          "name": "oldCollector",
          "type": "address"
        },
        {
          "indexed": true,
          "internalType": "address",
          "name": "newCollector",
          "type": "address"
        }
      ],
      "name": "FeeCollectorUpdated",
      "type": "event"
    },
    {
      "anonymous": false,
      "inputs": [
        {
          "indexed": true,
          "internalType": "address",
          "name": "previousOwner",
          "type": "address"
        },
        {
          "indexed": true,
          "internalType": "address",
          "name": "newOwner",
          "type": "address"
        }
      ],
      "name": "OwnershipTransferred",
      "type": "event"
    },
    {
      "anonymous": false,
      "inputs": [
        {
          "indexed": true,
          "internalType": "address",
          "name": "creator",
          "type": "address"
        },
        {
          "indexed": false,
          "internalType": "address",
          "name": "tokenAddress",
          "type": "address"
        }
      ],
      "name": "TokenCreated",
      "type": "event"
    },
    {
      "inputs": [
        {
          "internalType": "uint256",
          "name": "",
          "type": "uint256"
        }
      ],
      "name": "allTokens",
      "outputs": [
        {
          "internalType": "address",
          "name": "",
          "type": "address"
        }
      ],
      "stateMutability": "view",
      "type": "function"
    },
    {
      "inputs": [
        {
          "internalType": "string",
          "name": "name",
          "type": "string"
        },
        {
          "internalType": "string",
          "name": "symbol",
          "type": "string"
        },
        {
          "internalType": "uint256",
          "name": "totalSupply",
          "type": "uint256"
        },
        {
          "internalType": "address[]",
          "name": "initialHolders",
          "type": "address[]"
        },
        {
          "internalType": "uint256[]",
          "name": "initialAmounts",
          "type": "uint256[]"
        },
        {
          "internalType": "address",
          "name": "liquidityManager",
          "type": "address"
        },
        {
          "internalType": "address",
          "name": "launchManager",
          "type": "address"
        },
        {
          "internalType": "bool",
          "name": "launchWithLiquidity",
          "type": "bool"
        },
        {
          "internalType": "address",
          "name": "initialTokenOwner",
          "type": "address"
        }
      ],
      "name": "createToken",
      "outputs": [
        {
          "internalType": "address",
          "name": "",
          "type": "address"
        }
      ],
      "stateMutability": "payable",
      "type": "function"
    },
    {
      "inputs": [],
      "name": "creationFee",
      "outputs": [
        {
          "internalType": "uint256",
          "name": "",
          "type": "uint256"
        }
      ],
      "stateMutability": "view",
      "type": "function"
    },
    {
      "inputs": [
        {
          "internalType": "address",
          "name": "",
          "type": "address"
        },
        {
          "internalType": "uint256",
          "name": "",
          "type": "uint256"
        }
      ],
      "name": "creatorTokens",
      "outputs": [
        {
          "internalType": "address",
          "name": "",
          "type": "address"
        }
      ],
      "stateMutability": "view",
      "type": "function"
    },
    {
      "inputs": [],
      "name": "feeCollector",
      "outputs": [
        {
          "internalType": "address",
          "name": "",
          "type": "address"
        }
      ],
      "stateMutability": "view",
      "type": "function"
    },
    {
      "inputs": [
        {
          "internalType": "address",
          "name": "creator",
          "type": "address"
        }
      ],
      "name": "getCreatorTokenCount",
      "outputs": [
        {
          "internalType": "uint256",
          "name": "",
          "type": "uint256"
        }
      ],
      "stateMutability": "view",
      "type": "function"
    },
    {
      "inputs": [
        {
          "internalType": "address",
          "name": "creator",
          "type": "address"
        }
      ],
      "name": "getCreatorTokens",
      "outputs": [
        {
          "internalType": "address[]",
          "name": "",
          "type": "address[]"
        }
      ],
      "stateMutability": "view",
      "type": "function"
    },
    {
      "inputs": [],
      "name": "getTotalTokenCount",
      "outputs": [
        {
          "internalType": "uint256",
          "name": "",
          "type": "uint256"
        }
      ],
      "stateMutability": "view",
      "type": "function"
    },
    {
      "inputs": [],
      "name": "owner",
      "outputs": [
        {
          "internalType": "address",
          "name": "",
          "type": "address"
        }
      ],
      "stateMutability": "view",
      "type": "function"
    },
    {
      "inputs": [],
      "name": "renounceOwnership",
      "outputs": [],
      "stateMutability": "nonpayable",
      "type": "function"
    },
    {
      "inputs": [
        {
          "internalType": "address",
          "name": "newOwner",
          "type": "address"
        }
      ],
      "name": "transferOwnership",
      "outputs": [],
      "stateMutability": "nonpayable",
      "type": "function"
    },
    {
      "inputs": [
        {
          "internalType": "uint256",
          "name": "_newFee",
          "type": "uint256"
        }
      ],
      "name": "updateCreationFee",
      "outputs": [],
      "stateMutability": "nonpayable",
      "type": "function"
    },
    {
      "inputs": [
        {
          "internalType": "address",
          "name": "_newCollector",
          "type": "address"
        }
      ],
      "name": "updateFeeCollector",
      "outputs": [],
      "stateMutability": "nonpayable",
      "type": "function"
    }
  ],
  "transactionHash": "0x8a94294eaa7675db7fa2299e4639a8c0b766f663fec43d6e89e51c3974a195ed",
  "args": [
    "0x0000000000000000000000000000000000000000",
    "100000000000000"
  ],
  "numDeployments": 18,
  "solcInputHash": "0f86bc035ae63563b20d782c1f98d354",
  "bytecode": "0x6080346100ce57601f61248438819003918201601f19168301916001600160401b038311848410176100d35780849260409485528339810103126100ce5780516001600160a01b0391828216918290036100ce57602001519033156100b55760005460018060a01b0319903382821617600055604051943391167f8be0079c531659141344cd1fd0a4f28419497f9722a3daafe3b4186f6b6457e0600080a3600154161760015560025561239a90816100ea8239f35b604051631e4fbdf760e01b815260006004820152602490fd5b600080fd5b634e487b7160e01b600052604160045260246000fdfe60808060405260043610156200001457600080fd5b60003560e01c908163634282af14620009c4575080636fa23795146200096c578063715018a6146200090f57806374abfa54146200086d5780638da5cb5b1462000842578063b9032e961462000316578063c415b95c14620002eb578063c6d8a04a14620002ad578063d2c35ce814620001f1578063db3fa4cc1462000191578063dce0b4e41462000171578063e536266714620001515763f2fde38b14620000bc57600080fd5b346200014c5760203660031901126200014c57620000d962000a39565b620000e362000b35565b6001600160a01b039081169081156200013357600054826001600160601b0360a01b821617600055167f8be0079c531659141344cd1fd0a4f28419497f9722a3daafe3b4186f6b6457e0600080a3005b604051631e4fbdf760e01b815260006004820152602490fd5b600080fd5b346200014c5760003660031901126200014c576020600454604051908152f35b346200014c5760003660031901126200014c576020600254604051908152f35b346200014c5760403660031901126200014c57620001ae62000a39565b6024359060018060a01b038091166000526003602052604060002080548310156200014c57602092620001e19162000a20565b90549060031b1c16604051908152f35b346200014c5760203660031901126200014c576200020e62000a39565b6200021862000b35565b6001600160a01b039081169081156200026857600154826001600160601b0360a01b821617600155167f5d16ad41baeb009cd23eb8f6c7cde5c2e0cd5acf4a33926ab488875c37c37f38600080a3005b60405162461bcd60e51b815260206004820152601960248201527f496e76616c696420636f6c6c6563746f722061646472657373000000000000006044820152606490fd5b346200014c5760203660031901126200014c576001600160a01b03620002d262000a39565b1660005260036020526020604060002054604051908152f35b346200014c5760003660031901126200014c576001546040516001600160a01b039091168152602090f35b6101203660031901126200014c5767ffffffffffffffff6004358181116200014c576200034890369060040162000acf565b906024358181116200014c576200036490369060040162000acf565b916064358281116200014c57366023820112156200014c5780600401356200038c8162000b1c565b916200039c604051938462000a8f565b8183526024602084019260051b820101903682116200014c57602401915b8183106200082057505050608435938385116200014c57366023860112156200014c57846004013592620003ee8462000b1c565b95620003fe604051978862000a8f565b848752602087016024819660051b830101913683116200014c57602401905b8282106200080f57505060a4359190506001600160a01b03821682036200014c5760c435926001600160a01b03841684036200014c5760e4359485151586036200014c5761010435906001600160a01b03821682036200014c576002543410620007d75780518a51036200079257604051988961178b8101109061178b8b0111176200075757620004e36200051593620004d060209661178b8d62000bda903961012061178b8e01818152019062000b62565b61178b8c01808203908801529062000b62565b60443561178b8b0160408101919091526001600160a01b03909316606084015282810360809093019290925262000a50565b9661178b8701880360a061178b89010152519687815201936000965b808810620007795750506001600160a01b0390811661178b860160c0810191909152911660e08201529015156101009091015281900391506000f080156200076d5733600090815260036020526040902080546001600160a01b0390921691680100000000000000009190828110156200075757620005b69160018201815562000a20565b81546001600160a01b0360039290921b91821b19169084901b1790556004549081101562000757576001810180600455811015620007415760046000527f8a35acfbc15ff81a39ae7d344fd709f28e8600b4aa8c65c6b64bfe7fe36bd19b01816001600160601b0360a01b825416179055600080808060018060a01b0360015416600254905af16200064762000ba4565b5015620007065760025480341162000690575b6020826040518181527fd5f9bdf12adf29dab0248c349842c3822d53ae2bb4f36352f301630d018c8139833392a2604051908152f35b3403348111620006f057600080808093335af1620006ad62000ba4565b5015620006bb57816200065a565b60405162461bcd60e51b815260206004820152600d60248201526c1499599d5b990819985a5b1959609a1b6044820152606490fd5b634e487b7160e01b600052601160045260246000fd5b60405162461bcd60e51b8152602060048201526013602482015272119959481d1c985b9cd9995c8819985a5b1959606a1b6044820152606490fd5b634e487b7160e01b600052603260045260246000fd5b634e487b7160e01b600052604160045260246000fd5b6040513d6000823e3d90fd5b9094602080600192885181520196019701969062000531565b60405162461bcd60e51b815260206004820152601c60248201527f486f6c6465727320616e6420616d6f756e7473206d69736d61746368000000006044820152606490fd5b60405162461bcd60e51b815260206004820152601060248201526f496e73756666696369656e742066656560801b6044820152606490fd5b81358152602091820191016200041d565b82356001600160a01b03811681036200014c57815260209283019201620003ba565b346200014c5760003660031901126200014c576000546040516001600160a01b039091168152602090f35b346200014c576020806003193601126200014c576001600160a01b0390816200089562000a39565b16600052600381526040600020916040518093849184825491828152019160005284600020936000905b86838310620008f2578590620008d88287038362000a8f565b620008ee60405192828493845283019062000a50565b0390f35b8654821685526001968701968996509401939190910190620008bf565b346200014c5760003660031901126200014c576200092c62000b35565b600080546001600160a01b0319811682556001600160a01b03167f8be0079c531659141344cd1fd0a4f28419497f9722a3daafe3b4186f6b6457e08280a3005b346200014c5760203660031901126200014c577f5de302eeb1c80d4fb0c0953b692353f09ddf431411b8eb2034d5e857695619126040600435620009af62000b35565b600254908060025582519182526020820152a1005b346200014c5760203660031901126200014c57600435906004548210156200014c5760046000527f8a35acfbc15ff81a39ae7d344fd709f28e8600b4aa8c65c6b64bfe7fe36bd19b909101546001600160a01b03168152602090f35b8054821015620007415760005260206000200190600090565b600435906001600160a01b03821682036200014c57565b90815180825260208080930193019160005b82811062000a71575050505090565b83516001600160a01b03168552938101939281019260010162000a62565b90601f8019910116810190811067ffffffffffffffff8211176200075757604052565b67ffffffffffffffff81116200075757601f01601f191660200190565b81601f820112156200014c5780359062000ae98262000ab2565b9262000af9604051948562000a8f565b828452602083830101116200014c57816000926020809301838601378301015290565b67ffffffffffffffff8111620007575760051b60200190565b6000546001600160a01b0316330362000b4a57565b60405163118cdaa760e01b8152336004820152602490fd5b919082519283825260005b84811062000b8f575050826000602080949584010152601f8019910116010190565b60208183018101518483018201520162000b6d565b3d1562000bd4573d9062000bb88262000ab2565b9162000bc8604051938462000a8f565b82523d6000602084013e565b60609056fe608060405234620008ac576200178b803803806200001d81620008dd565b92833981019061012081830312620008ac5780516001600160401b038111620008ac57826200004e91830162000903565b60208201519092906001600160401b038111620008ac57816200007391840162000903565b92604083015190620000886060850162000975565b60808501519094906001600160401b038111620008ac5781019184601f84011215620008ac57825192620000c6620000c0856200098a565b620008dd565b9360208086838152019160051b83010191878311620008ac57602001905b828210620008c25750505060a08201516001600160401b038111620008ac5782019480601f87011215620008ac57855162000123620000c0826200098a565b9660208089848152019260051b820101928311620008ac57602001905b828210620008b1575050506200015960c0830162000975565b966101006200016b60e0850162000975565b930151918215158303620008ac578051906001600160401b0382116200077e5760035490600182811c92168015620008a1575b60208310146200075d5781601f8493116200082f575b50602090601f8311600114620007a05760009262000794575b50508160011b916000199060031b1c1916176003555b8051906001600160401b0382116200077e5760045490600182811c9216801562000773575b60208310146200075d5781601f849311620006eb575b50602090601f8311600114620006605760009262000654575b50508160011b916000199060031b1c1916176004555b6001600160a01b038681169790949088156200063b57600580546001600160a01b031981168b17909155604051908a9088167f8be0079c531659141344cd1fd0a4f28419497f9722a3daafe3b4186f6b6457e0600080a38551885103620005f95750600a855111620005a9576009976000895560005b86518110156200034b5787620002da8289620009a2565b511615158062000335575b62000314575b6000198114620002fe57600101620002c3565b634e487b7160e01b600052601160045260246000fd5b6200032d62000324828b620009a2565b518b54620009cd565b8a55620002eb565b5062000342818a620009a2565b511515620002e5565b5088939496955089838554116200055a576200036a84600254620009cd565b600255806000526000602052604060002084815401905560007fddf252ad1be2c89b69c2b068fc378daa952ba7f163c4a11628f55a4df523b3ef6020604051878152a38560055416600052600a60205260406000209560ff199660018882541617905580881697848915159788620004f3575b5050508216938462000462575b505050508162000456575b506200040c575b604051610cfa908162000a718239f35b81600052600a60205260016040600020918254161790557faf367c7d20ce5b2ab6da56afd0c9c39b00ba995263c60292a3e1ee3781fd4885602060405160018152a28080620003fc565b905082141583620003f5565b548303928311620002fe57826200049f85947f48eba0fc9bfd43465ccb41583e5c30f0a5f6eecfd2117414d95afaaefe38be3c94602094620009db565b604051908152a280600052600a6020526040600020600184825416179055807faf367c7d20ce5b2ab6da56afd0c9c39b00ba995263c60292a3e1ee3781fd4885602060405160018152a284808080620003ea565b156200052957620005059184620009db565b876000805160206200176b8339815191526020604051878152a25b888481620003dd565b508554620005389184620009db565b876000805160206200176b83398151915260208754604051908152a262000520565b60405162461bcd60e51b815260206004820152602160248201527f446973747269627574696f6e206578636565647320746f74616c20737570706c6044820152607960f81b6064820152608490fd5b60405162461bcd60e51b815260206004820152602260248201527f4d6178696d756d20313020696e697469616c20686f6c6465727320616c6c6f77604482015261195960f21b6064820152608490fd5b62461bcd60e51b815260206004820152601660248201527f417272617973206c656e677468206d69736d61746368000000000000000000006044820152606490fd5b604051631e4fbdf760e01b815260006004820152602490fd5b01519050388062000237565b600460009081527f8a35acfbc15ff81a39ae7d344fd709f28e8600b4aa8c65c6b64bfe7fe36bd19b9350601f198516905b818110620006d25750908460019594939210620006b8575b505050811b016004556200024d565b015160001960f88460031b161c19169055388080620006a9565b9293602060018192878601518155019501930162000691565b60046000529091507f8a35acfbc15ff81a39ae7d344fd709f28e8600b4aa8c65c6b64bfe7fe36bd19b601f840160051c81016020851062000755575b90849392915b601f830160051c82018110620007455750506200021e565b600081558594506001016200072d565b508062000727565b634e487b7160e01b600052602260045260246000fd5b91607f169162000208565b634e487b7160e01b600052604160045260246000fd5b015190503880620001cd565b6003600090815293507fc2575a0e9e593c00f959f8c92f12db2869c3395a3b0502d05e2516446f71f85b91905b601f198416851062000813576001945083601f19811610620007f9575b505050811b01600355620001e3565b015160001960f88460031b161c19169055388080620007ea565b81810151835560209485019460019093019290910190620007cd565b60036000529091507fc2575a0e9e593c00f959f8c92f12db2869c3395a3b0502d05e2516446f71f85b601f840160051c81016020851062000899575b90849392915b601f830160051c8201811062000889575050620001b4565b6000815585945060010162000871565b50806200086b565b91607f16916200019e565b600080fd5b815181526020918201910162000140565b60208091620008d18462000975565b815201910190620000e4565b6040519190601f01601f191682016001600160401b038111838210176200077e57604052565b919080601f84011215620008ac5782516001600160401b0381116200077e5760209062000939601f8201601f19168301620008dd565b92818452828287010111620008ac5760005b8181106200096157508260009394955001015290565b85810183015184820184015282016200094b565b51906001600160a01b0382168203620008ac57565b6001600160401b0381116200077e5760051b60200190565b8051821015620009b75760209160051b010190565b634e487b7160e01b600052603260045260246000fd5b91908201809211620002fe57565b6001600160a01b0390811691821562000a57571691821562000a3e5760207f8c5be1e5ebec7d5bd14f71427d1e84f3dd0314c0f7b2291e5b200ac8c7c3b925918360005260018252604060002085600052825280604060002055604051908152a3565b604051634a1406b160e11b815260006004820152602490fd5b60405163e602df0560e01b815260006004820152602490fdfe6080604081815260048036101561001557600080fd5b600092833560e01c90816306fdde03146109b857508063095ea7b31461098e57806318160ddd1461096f57806323b872dd1461087c578063313ce567146108605780633a1a8c91146107b45780633af32abf146107765780634ada218b1461074f57806367a80efd1461073057806370a08231146106f9578063715018a614610699578063790ca4131461067a5780638a8c523c146105c65780638da5cb5b1461059d57806395d89b411461047d578063a9059cbb1461044c578063b9a45aac146103ca578063bd20cb4e146102c7578063d00efb2f146102a8578063dd62ed3e1461025b578063f0a1b12c146101a75763f2fde38b1461011557600080fd5b346101a35760203660031901126101a35761012e610af6565b90610137610b27565b6001600160a01b0391821692831561018d575050600554826bffffffffffffffffffffffff60a01b821617600555167f8be0079c531659141344cd1fd0a4f28419497f9722a3daafe3b4186f6b6457e08380a380f35b51631e4fbdf760e01b8152908101849052602490fd5b8280fd5b5090346101a357806003193601126101a3576101c1610af6565b90602435916101ce610b27565b6001600160a01b038116938415610218575091602091610210827ff7fcef9d27f27936ac77bf8d525519fdfc6ceabfcb465dd65a68a3b38436248b9533610c31565b51908152a280f35b606490602084519162461bcd60e51b8352820152601d60248201527f496e76616c6964206c61756e63684d616e6167657220616464726573730000006044820152fd5b5050346102a457806003193601126102a45780602092610279610af6565b610281610b11565b6001600160a01b0391821683526001865283832091168252845220549051908152f35b5080fd5b5050346102a457816003193601126102a4576020906007549051908152f35b50346101a357826003193601126101a3576005546001600160a01b0316331480156103b5575b15610382576008549160ff83166103305760ff198316600117600855837e91797718383457eafcb8600ff903ce41cd8e28b20bc5a8df996532910b85dd8180a180f35b906020608492519162461bcd60e51b8352820152602660248201527f496e697469616c20646973747269627574696f6e20616c726561647920636f6d6044820152651c1b195d195960d21b6064820152fd5b6020606492519162461bcd60e51b8352820152600e60248201526d139bdd08185d5d1a1bdc9a5e995960921b6044820152fd5b50338352600a60205260ff82842054166102ed565b5050346102a457806003193601126102a4576103e4610af6565b60243590811515809203610448577faf367c7d20ce5b2ab6da56afd0c9c39b00ba995263c60292a3e1ee3781fd48859160209161041f610b27565b6001600160a01b0316808652600a8352848620805460ff191660ff84161790559351908152a280f35b8380fd5b5050346102a457806003193601126102a45760209061047661046c610af6565b6024359033610b53565b5160018152f35b509190346102a457816003193601126102a457805190828454600181811c90808316928315610593575b602093848410811461058057838852908115610564575060011461050f575b505050829003601f01601f191682019267ffffffffffffffff8411838510176104fc57508291826104f8925282610aad565b0390f35b634e487b7160e01b815260418552602490fd5b8787529192508591837f8a35acfbc15ff81a39ae7d344fd709f28e8600b4aa8c65c6b64bfe7fe36bd19b5b83851061055057505050508301013880806104c6565b80548886018301529301928490820161053a565b60ff1916878501525050151560051b84010190503880806104c6565b634e487b7160e01b895260228a52602489fd5b91607f16916104a7565b5050346102a457816003193601126102a45760055490516001600160a01b039091168152602090f35b50346101a357826003193601126101a3576105df610b27565b6005549060ff8260a01c16610637575060ff60a01b1916600160a01b176005554260068190554360075590519081527fb3da2db3dfc3778f99852546c6e9ab39ec253f9de7b0847afec61bd27878e92390602090a180f35b606490602084519162461bcd60e51b8352820152601760248201527f54726164696e6720616c726561647920656e61626c65640000000000000000006044820152fd5b5050346102a457816003193601126102a4576020906006549051908152f35b83346106f657806003193601126106f6576106b2610b27565b600580546001600160a01b0319811690915581906001600160a01b03167f8be0079c531659141344cd1fd0a4f28419497f9722a3daafe3b4186f6b6457e08280a380f35b80fd5b5050346102a45760203660031901126102a45760209181906001600160a01b03610721610af6565b16815280845220549051908152f35b5050346102a457816003193601126102a4576020906009549051908152f35b5050346102a457816003193601126102a45760209060ff60055460a01c1690519015158152f35b5050346102a45760203660031901126102a45760209160ff9082906001600160a01b036107a1610af6565b168152600a855220541690519015158152f35b5090346101a357806003193601126101a3576107ce610af6565b90602435916107db610b27565b6001600160a01b03811693841561081d575091602091610210827f48eba0fc9bfd43465ccb41583e5c30f0a5f6eecfd2117414d95afaaefe38be3c9533610c31565b606490602084519162461bcd60e51b8352820152602060248201527f496e76616c6964206c69717569646974794d616e6167657220616464726573736044820152fd5b5050346102a457816003193601126102a4576020905160128152f35b5082346106f65760603660031901126106f657610897610af6565b61089f610b11565b916044359360018060a01b0383168083526001602052868320338452602052868320549160001983106108db575b602088610476898989610b53565b86831061094357811561092c57331561091557508252600160209081528683203384528152918690209085900390558290610476876108cd565b8751634a1406b160e11b8152908101849052602490fd5b875163e602df0560e01b8152908101849052602490fd5b8751637dc7a0d960e11b8152339181019182526020820193909352604081018790528291506060010390fd5b5050346102a457816003193601126102a4576020906002549051908152f35b5050346102a457806003193601126102a4576020906104766109ae610af6565b6024359033610c31565b84915083346101a357826003193601126101a35782600354600181811c90808316928315610aa3575b602093848410811461058057838852908115610a875750600114610a3157505050829003601f01601f191682019267ffffffffffffffff8411838510176104fc57508291826104f8925282610aad565b600387529192508591837fc2575a0e9e593c00f959f8c92f12db2869c3395a3b0502d05e2516446f71f85b5b838510610a7357505050508301018580806104c6565b805488860183015293019284908201610a5d565b60ff1916878501525050151560051b84010190508580806104c6565b91607f16916109e1565b6020808252825181830181905290939260005b828110610ae257505060409293506000838284010152601f8019910116010190565b818101860151848201604001528501610ac0565b600435906001600160a01b0382168203610b0c57565b600080fd5b602435906001600160a01b0382168203610b0c57565b6005546001600160a01b03163303610b3b57565b60405163118cdaa760e01b8152336004820152602490fd5b916001600160a01b03808416928315610c185716928315610bff5760009083825281602052604082205490838210610bcd575091604082827fddf252ad1be2c89b69c2b068fc378daa952ba7f163c4a11628f55a4df523b3ef958760209652828652038282205586815220818154019055604051908152a3565b60405163391434e360e21b81526001600160a01b03919091166004820152602481019190915260448101839052606490fd5b60405163ec442f0560e01b815260006004820152602490fd5b604051634b637e8f60e11b815260006004820152602490fd5b6001600160a01b03908116918215610cab5716918215610c925760207f8c5be1e5ebec7d5bd14f71427d1e84f3dd0314c0f7b2291e5b200ac8c7c3b925918360005260018252604060002085600052825280604060002055604051908152a3565b604051634a1406b160e11b815260006004820152602490fd5b60405163e602df0560e01b815260006004820152602490fdfea2646970667358221220ce241fff66f980ae1c0704a35015f1373bda3148469287f3cc369f0b3871ce5a64736f6c63430008140033f7fcef9d27f27936ac77bf8d525519fdfc6ceabfcb465dd65a68a3b38436248ba2646970667358221220735526679382b855f583d66ea6566db22a67c31844e0bcb0ad5625fa746f4b6164736f6c63430008140033",
  "devdoc": {
    "errors": {
      "OwnableInvalidOwner(address)": [
        {
          "details": "The owner is not a valid owner account. (eg. `address(0)`)"
        }
      ],
      "OwnableUnauthorizedAccount(address)": [
        {
          "details": "The caller account is not authorized to perform an operation."
        }
      ]
    },
    "kind": "dev",
    "methods": {
      "owner()": {
        "details": "Returns the address of the current owner."
      },
      "renounceOwnership()": {
        "details": "Leaves the contract without owner. It will not be possible to call `onlyOwner` functions. Can only be called by the current owner. NOTE: Renouncing ownership will leave the contract without an owner, thereby disabling any functionality that is only available to the owner."
      },
      "transferOwnership(address)": {
        "details": "Transfers ownership of the contract to a new account (`newOwner`). Can only be called by the current owner."
      }
    },
    "version": 1
  },
  "userdoc": {
    "kind": "user",
    "methods": {},
    "version": 1
  },
  "storageLayout": {
    "storage": [
      {
        "astId": 8,
        "contract": "contracts/core/TokenFactory.sol:TokenFactory",
        "label": "_owner",
        "offset": 0,
        "slot": "0",
        "type": "t_address"
      },
      {
        "astId": 1521,
        "contract": "contracts/core/TokenFactory.sol:TokenFactory",
        "label": "feeCollector",
        "offset": 0,
        "slot": "1",
        "type": "t_address"
      },
      {
        "astId": 1523,
        "contract": "contracts/core/TokenFactory.sol:TokenFactory",
        "label": "creationFee",
        "offset": 0,
        "slot": "2",
        "type": "t_uint256"
      },
      {
        "astId": 1528,
        "contract": "contracts/core/TokenFactory.sol:TokenFactory",
        "label": "creatorTokens",
        "offset": 0,
        "slot": "3",
        "type": "t_mapping(t_address,t_array(t_address)dyn_storage)"
      },
      {
        "astId": 1531,
        "contract": "contracts/core/TokenFactory.sol:TokenFactory",
        "label": "allTokens",
        "offset": 0,
        "slot": "4",
        "type": "t_array(t_address)dyn_storage"
      }
    ],
    "types": {
      "t_address": {
        "encoding": "inplace",
        "label": "address",
        "numberOfBytes": "20"
      },
      "t_array(t_address)dyn_storage": {
        "base": "t_address",
        "encoding": "dynamic_array",
        "label": "address[]",
        "numberOfBytes": "32"
      },
      "t_mapping(t_address,t_array(t_address)dyn_storage)": {
        "encoding": "mapping",
        "key": "t_address",
        "label": "mapping(address => address[])",
        "numberOfBytes": "32",
        "value": "t_array(t_address)dyn_storage"
      },
      "t_uint256": {
        "encoding": "inplace",
        "label": "uint256",
        "numberOfBytes": "32"
      }
    }
  }
}