{
  "address": "0x31376bF5283038EF880D4967066Bc33D81F93B59",
  "abi": [
    {
      "inputs": [
        {
          "internalType": "address",
          "name": "_uniswapRouter",
          "type": "address"
        }
      ],
      "stateMutability": "nonpayable",
      "type": "constructor"
    },
    {
      "inputs": [],
      "name": "EnforcedPause",
      "type": "error"
    },
    {
      "inputs": [],
      "name": "ExpectedPause",
      "type": "error"
    },
    {
      "inputs": [
        {
          "internalType": "address",
          "name": "owner",
          "type": "address"
        }
      ],
      "name": "OwnableInvalidOwner",
      "type": "error"
    },
    {
      "inputs": [
        {
          "internalType": "address",
          "name": "account",
          "type": "address"
        }
      ],
      "name": "OwnableUnauthorizedAccount",
      "type": "error"
    },
    {
      "inputs": [],
      "name": "ReentrancyGuardReentrantCall",
      "type": "error"
    },
    {
      "inputs": [
        {
          "internalType": "address",
          "name": "token",
          "type": "address"
        }
      ],
      "name": "SafeERC20FailedOperation",
      "type": "error"
    },
    {
      "anonymous": false,
      "inputs": [
        {
          "indexed": true,
          "internalType": "uint256",
          "name": "orderId",
          "type": "uint256"
        },
        {
          "indexed": true,
          "internalType": "address",
          "name": "user",
          "type": "address"
        }
      ],
      "name": "LimitOrderCancelled",
      "type": "event"
    },
    {
      "anonymous": false,
      "inputs": [
        {
          "indexed": true,
          "internalType": "uint256",
          "name": "orderId",
          "type": "uint256"
        },
        {
          "indexed": true,
          "internalType": "address",
          "name": "user",
          "type": "address"
        },
        {
          "indexed": true,
          "internalType": "address",
          "name": "tokenIn",
          "type": "address"
        },
        {
          "indexed": false,
          "internalType": "address",
          "name": "tokenOut",
          "type": "address"
        },
        {
          "indexed": false,
          "internalType": "uint256",
          "name": "amountIn",
          "type": "uint256"
        },
        {
          "indexed": false,
          "internalType": "uint256",
          "name": "minAmountOut",
          "type": "uint256"
        },
        {
          "indexed": false,
          "internalType": "uint256",
          "name": "expiry",
          "type": "uint256"
        }
      ],
      "name": "LimitOrderCreated",
      "type": "event"
    },
    {
      "anonymous": false,
      "inputs": [
        {
          "indexed": true,
          "internalType": "uint256",
          "name": "orderId",
          "type": "uint256"
        },
        {
          "indexed": true,
          "internalType": "address",
          "name": "user",
          "type": "address"
        },
        {
          "indexed": true,
          "internalType": "address",
          "name": "executor",
          "type": "address"
        },
        {
          "indexed": false,
          "internalType": "uint256",
          "name": "amountOut",
          "type": "uint256"
        }
      ],
      "name": "LimitOrderExecuted",
      "type": "event"
    },
    {
      "anonymous": false,
      "inputs": [
        {
          "indexed": true,
          "internalType": "address",
          "name": "user",
          "type": "address"
        },
        {
          "indexed": true,
          "internalType": "address",
          "name": "tokenIn",
          "type": "address"
        },
        {
          "indexed": true,
          "internalType": "address",
          "name": "tokenOut",
          "type": "address"
        },
        {
          "indexed": false,
          "internalType": "uint256",
          "name": "amountIn",
          "type": "uint256"
        },
        {
          "indexed": false,
          "internalType": "uint256",
          "name": "amountOut",
          "type": "uint256"
        },
        {
          "indexed": false,
          "internalType": "uint256",
          "name": "fee",
          "type": "uint256"
        }
      ],
      "name": "MarketSwap",
      "type": "event"
    },
    {
      "anonymous": false,
      "inputs": [
        {
          "indexed": true,
          "internalType": "address",
          "name": "previousOwner",
          "type": "address"
        },
        {
          "indexed": true,
          "internalType": "address",
          "name": "newOwner",
          "type": "address"
        }
      ],
      "name": "OwnershipTransferred",
      "type": "event"
    },
    {
      "anonymous": false,
      "inputs": [
        {
          "indexed": false,
          "internalType": "address",
          "name": "account",
          "type": "address"
        }
      ],
      "name": "Paused",
      "type": "event"
    },
    {
      "anonymous": false,
      "inputs": [
        {
          "indexed": false,
          "internalType": "address",
          "name": "account",
          "type": "address"
        }
      ],
      "name": "Unpaused",
      "type": "event"
    },
    {
      "inputs": [],
      "name": "FEE_DENOMINATOR",
      "outputs": [
        {
          "internalType": "uint256",
          "name": "",
          "type": "uint256"
        }
      ],
      "stateMutability": "view",
      "type": "function"
    },
    {
      "inputs": [
        {
          "internalType": "address",
          "name": "executor",
          "type": "address"
        }
      ],
      "name": "addAuthorizedExecutor",
      "outputs": [],
      "stateMutability": "nonpayable",
      "type": "function"
    },
    {
      "inputs": [
        {
          "internalType": "address",
          "name": "",
          "type": "address"
        }
      ],
      "name": "authorizedExecutors",
      "outputs": [
        {
          "internalType": "bool",
          "name": "",
          "type": "bool"
        }
      ],
      "stateMutability": "view",
      "type": "function"
    },
    {
      "inputs": [
        {
          "internalType": "uint256",
          "name": "orderId",
          "type": "uint256"
        }
      ],
      "name": "cancelLimitOrder",
      "outputs": [],
      "stateMutability": "nonpayable",
      "type": "function"
    },
    {
      "inputs": [
        {
          "internalType": "uint256",
          "name": "orderId",
          "type": "uint256"
        }
      ],
      "name": "cleanupExpiredOrder",
      "outputs": [],
      "stateMutability": "nonpayable",
      "type": "function"
    },
    {
      "inputs": [
        {
          "internalType": "address",
          "name": "tokenIn",
          "type": "address"
        },
        {
          "internalType": "address",
          "name": "tokenOut",
          "type": "address"
        },
        {
          "internalType": "uint256",
          "name": "amountIn",
          "type": "uint256"
        },
        {
          "internalType": "uint256",
          "name": "minAmountOut",
          "type": "uint256"
        },
        {
          "internalType": "uint256",
          "name": "expiry",
          "type": "uint256"
        }
      ],
      "name": "createLimitOrder",
      "outputs": [
        {
          "internalType": "uint256",
          "name": "orderId",
          "type": "uint256"
        }
      ],
      "stateMutability": "nonpayable",
      "type": "function"
    },
    {
      "inputs": [
        {
          "internalType": "address",
          "name": "token",
          "type": "address"
        },
        {
          "internalType": "address",
          "name": "to",
          "type": "address"
        },
        {
          "internalType": "uint256",
          "name": "amount",
          "type": "uint256"
        }
      ],
      "name": "emergencyWithdraw",
      "outputs": [],
      "stateMutability": "nonpayable",
      "type": "function"
    },
    {
      "inputs": [
        {
          "internalType": "uint256[]",
          "name": "orderIds",
          "type": "uint256[]"
        }
      ],
      "name": "executeBatchLimitOrders",
      "outputs": [],
      "stateMutability": "nonpayable",
      "type": "function"
    },
    {
      "inputs": [
        {
          "internalType": "uint256",
          "name": "orderId",
          "type": "uint256"
        }
      ],
      "name": "executeLimitOrder",
      "outputs": [],
      "stateMutability": "nonpayable",
      "type": "function"
    },
    {
      "inputs": [],
      "name": "feePercentage",
      "outputs": [
        {
          "internalType": "uint256",
          "name": "",
          "type": "uint256"
        }
      ],
      "stateMutability": "view",
      "type": "function"
    },
    {
      "inputs": [
        {
          "internalType": "address",
          "name": "user",
          "type": "address"
        }
      ],
      "name": "getActiveOrdersByUser",
      "outputs": [
        {
          "internalType": "uint256[]",
          "name": "activeOrders",
          "type": "uint256[]"
        }
      ],
      "stateMutability": "view",
      "type": "function"
    },
    {
      "inputs": [
        {
          "internalType": "uint256",
          "name": "orderId",
          "type": "uint256"
        }
      ],
      "name": "getOrderDetails",
      "outputs": [
        {
          "components": [
            {
              "internalType": "address",
              "name": "user",
              "type": "address"
            },
            {
              "internalType": "address",
              "name": "tokenIn",
              "type": "address"
            },
            {
              "internalType": "address",
              "name": "tokenOut",
              "type": "address"
            },
            {
              "internalType": "uint256",
              "name": "amountIn",
              "type": "uint256"
            },
            {
              "internalType": "uint256",
              "name": "minAmountOut",
              "type": "uint256"
            },
            {
              "internalType": "uint256",
              "name": "expiry",
              "type": "uint256"
            },
            {
              "internalType": "bool",
              "name": "executed",
              "type": "bool"
            },
            {
              "internalType": "bool",
              "name": "cancelled",
              "type": "bool"
            }
          ],
          "internalType": "struct TokenSwapContract.LimitOrder",
          "name": "",
          "type": "tuple"
        }
      ],
      "stateMutability": "view",
      "type": "function"
    },
    {
      "inputs": [
        {
          "internalType": "address",
          "name": "tokenIn",
          "type": "address"
        },
        {
          "internalType": "address",
          "name": "tokenOut",
          "type": "address"
        },
        {
          "internalType": "uint256",
          "name": "amountIn",
          "type": "uint256"
        }
      ],
      "name": "getQuote",
      "outputs": [
        {
          "internalType": "uint256",
          "name": "amountOut",
          "type": "uint256"
        },
        {
          "internalType": "uint256",
          "name": "fee",
          "type": "uint256"
        }
      ],
      "stateMutability": "view",
      "type": "function"
    },
    {
      "inputs": [
        {
          "internalType": "address",
          "name": "user",
          "type": "address"
        }
      ],
      "name": "getUserOrders",
      "outputs": [
        {
          "internalType": "uint256[]",
          "name": "",
          "type": "uint256[]"
        }
      ],
      "stateMutability": "view",
      "type": "function"
    },
    {
      "inputs": [
        {
          "internalType": "uint256",
          "name": "",
          "type": "uint256"
        }
      ],
      "name": "limitOrders",
      "outputs": [
        {
          "internalType": "address",
          "name": "user",
          "type": "address"
        },
        {
          "internalType": "address",
          "name": "tokenIn",
          "type": "address"
        },
        {
          "internalType": "address",
          "name": "tokenOut",
          "type": "address"
        },
        {
          "internalType": "uint256",
          "name": "amountIn",
          "type": "uint256"
        },
        {
          "internalType": "uint256",
          "name": "minAmountOut",
          "type": "uint256"
        },
        {
          "internalType": "uint256",
          "name": "expiry",
          "type": "uint256"
        },
        {
          "internalType": "bool",
          "name": "executed",
          "type": "bool"
        },
        {
          "internalType": "bool",
          "name": "cancelled",
          "type": "bool"
        }
      ],
      "stateMutability": "view",
      "type": "function"
    },
    {
      "inputs": [
        {
          "internalType": "address",
          "name": "tokenIn",
          "type": "address"
        },
        {
          "internalType": "address",
          "name": "tokenOut",
          "type": "address"
        },
        {
          "internalType": "uint256",
          "name": "amountIn",
          "type": "uint256"
        },
        {
          "internalType": "uint256",
          "name": "minAmountOut",
          "type": "uint256"
        },
        {
          "internalType": "uint256",
          "name": "deadline",
          "type": "uint256"
        }
      ],
      "name": "marketSwapExactTokensForTokens",
      "outputs": [],
      "stateMutability": "nonpayable",
      "type": "function"
    },
    {
      "inputs": [
        {
          "internalType": "address",
          "name": "tokenIn",
          "type": "address"
        },
        {
          "internalType": "address",
          "name": "tokenOut",
          "type": "address"
        },
        {
          "internalType": "uint256",
          "name": "amountOut",
          "type": "uint256"
        },
        {
          "internalType": "uint256",
          "name": "maxAmountIn",
          "type": "uint256"
        },
        {
          "internalType": "uint256",
          "name": "deadline",
          "type": "uint256"
        }
      ],
      "name": "marketSwapTokensForExactTokens",
      "outputs": [],
      "stateMutability": "nonpayable",
      "type": "function"
    },
    {
      "inputs": [],
      "name": "nextOrderId",
      "outputs": [
        {
          "internalType": "uint256",
          "name": "",
          "type": "uint256"
        }
      ],
      "stateMutability": "view",
      "type": "function"
    },
    {
      "inputs": [],
      "name": "owner",
      "outputs": [
        {
          "internalType": "address",
          "name": "",
          "type": "address"
        }
      ],
      "stateMutability": "view",
      "type": "function"
    },
    {
      "inputs": [],
      "name": "pause",
      "outputs": [],
      "stateMutability": "nonpayable",
      "type": "function"
    },
    {
      "inputs": [],
      "name": "paused",
      "outputs": [
        {
          "internalType": "bool",
          "name": "",
          "type": "bool"
        }
      ],
      "stateMutability": "view",
      "type": "function"
    },
    {
      "inputs": [
        {
          "internalType": "address",
          "name": "executor",
          "type": "address"
        }
      ],
      "name": "removeAuthorizedExecutor",
      "outputs": [],
      "stateMutability": "nonpayable",
      "type": "function"
    },
    {
      "inputs": [],
      "name": "renounceOwnership",
      "outputs": [],
      "stateMutability": "nonpayable",
      "type": "function"
    },
    {
      "inputs": [
        {
          "internalType": "uint256",
          "name": "_feePercentage",
          "type": "uint256"
        }
      ],
      "name": "setFeePercentage",
      "outputs": [],
      "stateMutability": "nonpayable",
      "type": "function"
    },
    {
      "inputs": [
        {
          "internalType": "address",
          "name": "newOwner",
          "type": "address"
        }
      ],
      "name": "transferOwnership",
      "outputs": [],
      "stateMutability": "nonpayable",
      "type": "function"
    },
    {
      "inputs": [],
      "name": "uniswapRouter",
      "outputs": [
        {
          "internalType": "contract IUniswapV2Router",
          "name": "",
          "type": "address"
        }
      ],
      "stateMutability": "view",
      "type": "function"
    },
    {
      "inputs": [],
      "name": "unpause",
      "outputs": [],
      "stateMutability": "nonpayable",
      "type": "function"
    },
    {
      "inputs": [
        {
          "internalType": "address",
          "name": "",
          "type": "address"
        },
        {
          "internalType": "uint256",
          "name": "",
          "type": "uint256"
        }
      ],
      "name": "userOrders",
      "outputs": [
        {
          "internalType": "uint256",
          "name": "",
          "type": "uint256"
        }
      ],
      "stateMutability": "view",
      "type": "function"
    },
    {
      "inputs": [
        {
          "internalType": "address",
          "name": "token",
          "type": "address"
        },
        {
          "internalType": "address",
          "name": "to",
          "type": "address"
        }
      ],
      "name": "withdrawFees",
      "outputs": [],
      "stateMutability": "nonpayable",
      "type": "function"
    }
  ],
  "transactionHash": "0x0e07ded1ad23b5fd1aab85bd4234af2af6711aaa11930a6892e426136ffbb6da",
  "args": [
    "0xeE567Fe1712Faf6149d80dA1E6934E354124CfE3"
  ],
  "numDeployments": 2,
  "solcInputHash": "c413825a1fe089121105bd94f78ef9ac",
  "bytecode": "0x60a03461010457601f6120d638819003918201601f19168301916001600160401b038311848410176101095780849260209460405283398101031261010457516001600160a01b03908181169081900361010457600160005533156100eb5760015460405192339082167f8be0079c531659141344cd1fd0a4f28419497f9722a3daafe3b4186f6b6457e0600080a36001600160a81b0319163360ff60a01b191617600155601e600255608052611fb6908161012082396080518181816106a40152818161097601528181610fcc015281816111db0152818161163a0152818161171d01526119300152f35b604051631e4fbdf760e01b815260006004820152602490fd5b600080fd5b634e487b7160e01b600052604160045260246000fdfe6080604052600436101561001257600080fd5b60e0600035811c90816305cdb1c7146118b65781632a58b330146118985781633f4ba83a1461182657816343278cbc14611544578163568c8206146114165781635c975abb146113f05781635de8a9c51461115d57816360c7bae21461111b57816363c69f0814611097578163679d86a714611058578163715018a614610ffb578163735de9f714610fb65781638456cb5914610f54578163856652e914610efc5781638da5cb5b14610ed3578163a001ecdd14610eb5578163a3e2b49514610e28578163a5cdc8fc14610cfd578163a7a04b1114610a80578163ae06c1b714610a22578163b2a7f494146109dd578163c515ee23146108dd578163c721946014610600578163d73792a9146105e3578163de1b983b146103df578163e63ea408146103b7578163ec7dd7bb146102a257508063f2555278146101f15763f2fde38b1461015e57600080fd5b346101ec5760203660031901126101ec57610177611a74565b61017f611b65565b6001600160a01b039081169081156101d357600154826bffffffffffffffffffffffff60a01b821617600155167f8be0079c531659141344cd1fd0a4f28419497f9722a3daafe3b4186f6b6457e0600080a3005b604051631e4fbdf760e01b815260006004820152602490fd5b600080fd5b346101ec5760403660031901126101ec5761020a611a74565b602435906001600160a01b039081831683036101ec57610228611b65565b16604051916370a0823160e01b8352306004840152602083602481855afa91821561029657600092610261575b61025f9350611f3f565b005b91506020833d821161028e575b8161027b60209383611c76565b810103126101ec5761025f925191610255565b3d915061026e565b6040513d6000823e3d90fd5b346101ec5760203660031901126101ec57806000610100926040516102c681611c3d565b8281528260208201528260408201528260608201528260808201528260a08201528260c08201520152600435600052600360205260406000209060405161030c81611c3d565b60018060a01b03908184541693848252826001820154169260208301938452806002830154169060408401918252600383015490606085019182526004840154926080860193845281600660058701549660a0890197885201549760ff8a60c08a0199828c1615158b52019960081c16151589526040519a8b52511660208a0152511660408801525160608701525160808601525160a085015251151560c084015251151590820152f35b346101ec5761025f6103c836611b30565b916103d1611b65565b6001600160a01b0316611f3f565b346101ec576103ed36611a8a565b906103fb9594939295611ec1565b610403611ea0565b61040e861515611b91565b428211156105ad576006946001600160a01b039485169461043188303389611de9565b865496879161043f83611ee4565b82556040519061044e82611c3d565b33825260208201898152816040840199169889815260608401908d8252608085019289845260a08601948b865260c087019960008b5287019860008a526000526003602052806040600020975116916bffffffffffffffffffffffff60a01b9283895416178855816001890191511683825416179055600287019251169082541617905551600384015551600483015551600582015501915115159060ff61ff0084549251151560081b1692169061ffff19161717905533600052600460205260406000209586549668010000000000000000881015610597578761053a91600160209a018155611b02565b81549060031b9088821b91600019901b19161790556040519384528684015260408301526060820152827fddecc7d4609591d29cab61dd635bb2e1d559ffe7459733ce06eba7117f83b2a760803393a46001600055604051908152f35b634e487b7160e01b600052604160045260246000fd5b60405162461bcd60e51b815260206004820152600e60248201526d496e76616c69642065787069727960901b6044820152606490fd5b346101ec5760003660031901126101ec5760206040516127108152f35b346101ec576020806003193601126101ec5760043561061d611ec1565b336000526005825261063660ff60406000205416611ef3565b80600052600382526040600020906006820191825460ff81161590816108ce575b501561089257600581015442101561085d57610687600382015461271061068060025483611c1d565b0490611c30565b60018201805460405163095ea7b360e01b81526001600160a01b037f00000000000000000000000000000000000000000000000000000000000000008116600483018190526024830186905297909594909390929091908990829060449082906000908b165af1801561029657610830575b50846040519161070883611c5a565b600283526040368b850137541661071e82611cc8565b528460028501541661072f82611cd5565b52600484015496858554169761012c420180421161081a5760009461076c86926040519c8d97889687956338ed173960e01b875260048701611db0565b03925af1948515610296576000956107cb575b50805460ff191660011790555416917fef7891eb4834356addb312671a4cd1c2611fdb9d26493f1dbf275bc7ff054f9c906107b990611cd5565b51936040519485523394a46001600055005b7fef7891eb4834356addb312671a4cd1c2611fdb9d26493f1dbf275bc7ff054f9c93919550916108106107b9933d806000833e6108088183611c76565b810190611cf9565b959193509161077f565b634e487b7160e01b600052601160045260246000fd5b61084f90893d8b11610856575b6108478183611c76565b810190611c98565b50886106f9565b503d61083d565b60405162461bcd60e51b815260048101859052600d60248201526c13dc99195c88195e1c1a5c9959609a1b6044820152606490fd5b60405162461bcd60e51b81526004810185905260146024820152734f72646572206e6f742065786563757461626c6560601b6044820152606490fd5b60ff915060081c161585610657565b346101ec5761097260006108f036611b30565b929161090c61271061090460025487611c1d565b048095611c30565b6040519261091984611c5a565b60028452604036602086013761092e84611cc8565b6001600160a01b0393841690528261094585611cd5565b9116905260405180968194829363d06ca61f60e01b84526004840152604060248401526044830190611d73565b03917f0000000000000000000000000000000000000000000000000000000000000000165afa918215610296576040926109b4916000916109c2575b50611cd5565b519082519182526020820152f35b6109d791503d806000833e6108088183611c76565b846109ae565b346101ec5760203660031901126101ec576109f6611a74565b6109fe611b65565b6001600160a01b03166000908152600560205260409020805460ff19166001179055005b346101ec5760203660031901126101ec57600435610a3e611b65565b6101f48111610a4c57600255005b60405162461bcd60e51b815260206004820152600c60248201526b08ccaca40e8dede40d0d2ced60a31b6044820152606490fd5b346101ec57602090816003193601126101ec576001600160a01b0380610aa4611a74565b1660005260048352604060002092604051808583829754938481520190600052836000209260005b85828210610ce757505050610ae392500385611c76565b60009160005b8551811015610bb957610afc8187611ce5565b516000526003808452604060002060405191610b1783611c3d565b848254168352846001830154168684015284600283015416604084015281015460608301526004810154608083015260066005820154918260a085015201549160ff8084161593841560c084015260081c16159088821591015282610bb1575b5081610ba7575b50610b92575b610b8d90611ee4565b610ae9565b92610b9f610b8d91611ee4565b939050610b84565b9050421087610b7e565b915088610b77565b50919390610bc685611cb0565b94610bd46040519687611c76565b808652610be3601f1991611cb0565b01368287013760009260005b8351811015610cd557610c028185611ce5565b516000526003808452604060002060405191610c1d83611c3d565b848254168352846001830154168684015284600283015416604084015281015460608301526004810154608083015260066005820154918260a085015201549160ff8084161593841560c084015260081c16159089821591015282610ccd575b5081610cc3575b50610c98575b610c9390611ee4565b610bef565b93610cbb610c9391610caa8787611ce5565b51610cb5828b611ce5565b52611ee4565b949050610c8a565b9050421088610c84565b915089610c7d565b60405180610ce38982611ac7565b0390f35b855484526001958601958a955093019201610acc565b346101ec5760203660031901126101ec57600435610d19611ec1565b600081815260036020526040902080546001600160a01b0390811691338303610df1576006810192835460ff8116159081610de2575b5015610da5576003610d6a9360018401541692015491611f3f565b805461ff00191661010017905533907f34cf495316dbb07c8286e6c6b35542a47854aaf8050f2dd51ab0347b85558297600080a36001600055005b60405162461bcd60e51b81526020600482015260156024820152744f72646572206e6f742063616e63656c6c61626c6560581b6044820152606490fd5b60ff915060081c161586610d4f565b60405162461bcd60e51b815260206004820152600f60248201526e2737ba1037b93232b91037bbb732b960891b6044820152606490fd5b346101ec5760203660031901126101ec5761010090600435600052600360205260406000209060ff60018060a01b038084541693816001820154169160028201541660038201546004830154916006600585015494015494604051988952602089015260408801526060870152608086015260a0850152818116151560c085015260081c16151590820152f35b346101ec5760003660031901126101ec576020600254604051908152f35b346101ec5760003660031901126101ec576001546040516001600160a01b039091168152602090f35b346101ec5760403660031901126101ec57610f15611a74565b6001600160a01b03166000908152600460205260409020805460243591908210156101ec57602091610f4691611b02565b90546040519160031b1c8152f35b346101ec5760003660031901126101ec57610f6d611b65565b610f75611ea0565b6001805460ff60a01b1916600160a01b1790556040513381527f62e78cea01bee320cd4e420270b5ea74000d11b0c9f74754ebdbfc544b05a25890602090a1005b346101ec5760003660031901126101ec576040517f00000000000000000000000000000000000000000000000000000000000000006001600160a01b03168152602090f35b346101ec5760003660031901126101ec57611014611b65565b600180546001600160a01b031981169091556000906001600160a01b03167f8be0079c531659141344cd1fd0a4f28419497f9722a3daafe3b4186f6b6457e08280a3005b346101ec5760203660031901126101ec576001600160a01b03611079611a74565b166000526005602052602060ff604060002054166040519015158152f35b346101ec576020806003193601126101ec576001600160a01b036110b9611a74565b1660005260048152604060002090604051908181845491828152019360005281600020916000905b82821061110457610ce3856110f881890382611c76565b60405191829182611ac7565b8354865294850194600193840193909101906110e1565b346101ec5760203660031901126101ec57611134611a74565b61113c611b65565b6001600160a01b03166000908152600560205260409020805460ff19169055005b346101ec5761116b36611a8a565b611179949394929192611ec1565b611181611ea0565b61118c821515611b91565b61119842821015611bdd565b604051916111a583611c5a565b6002835260403660208501376111ba83611cc8565b6001600160a01b039586169081905294806111d485611cd5565b97168097527f000000000000000000000000000000000000000000000000000000000000000016916040516307c0329d60e21b815282600482015260406024820152600081806112276044820189611d73565b0381875afa801561029657611244916000916113d5575b50611cc8565b519061271080830283810482148415171561081a576002548083039280841161081a57146113bf5704958611611381576112808630338a611de9565b61128a8287611c30565b60405163095ea7b360e01b81526001600160a01b0386166004820152602481018490529094909260208460448160008d5af18015610296576112f1976000958692611363575b50604051634401edf760e11b81529889958694859333918b60048701611db0565b03925af1928315610296577f96c33ff19b53193fda53bab8868675504d5ac0c24f257e854da2493e7e31518593611348575b50604080519485526020850191909152830152339180606081015b0390a46001600055005b61135c903d806000833e6108088183611c76565b5086611323565b61137a9060203d8111610856576108478183611c76565b508c6112d0565b60405162461bcd60e51b8152602060048201526016602482015275115e18d95cdcda5d99481a5b9c1d5d08185b5bdd5b9d60521b6044820152606490fd5b634e487b7160e01b600052601260045260246000fd5b6113ea91503d806000833e6108088183611c76565b8961123e565b346101ec5760003660031901126101ec57602060ff60015460a01c166040519015158152f35b346101ec5760203660031901126101ec5760043580600052600360205260406000206005810154421061150b576006810190815460ff81161590816114fc575b50156114b7576001810154815460038301546001600160a01b039492611480928616908616611f3f565b805461ff0019166101001790555416907f34cf495316dbb07c8286e6c6b35542a47854aaf8050f2dd51ab0347b85558297600080a3005b60405162461bcd60e51b815260206004820152601760248201527f4f7264657220616c72656164792070726f6365737365640000000000000000006044820152606490fd5b60ff915060081c161584611456565b60405162461bcd60e51b815260206004820152601160248201527013dc99195c881b9bdd08195e1c1a5c9959607a1b6044820152606490fd5b346101ec5760203660031901126101ec5767ffffffffffffffff80600435116101ec573660236004350112156101ec5760043560040135116101ec573660246004356004013560051b6004350101116101ec5761159f611ec1565b3360005260056020526115b960ff60406000205416611ef3565b60005b6004356004013581106115d0576001600055005b60248160051b6004350101356000526003602052604060002090600682015460ff8116908115611818575b50801561180a575b6118005761161e600383015461271061068060025483611c1d565b600183015460405163095ea7b360e01b81526001600160a01b037f00000000000000000000000000000000000000000000000000000000000000008116600483015260248201849052929492909160209183916044918391600091165af18015610296576117e1575b506040519061169582611c5a565b60028252604036602084013760018101546001600160a01b03166116b883611cc8565b5260028101546001600160a01b03166116d083611cd5565b5260048101549360018060a01b038254169261012c4201421161081a5761175c9561171860009360405196879485946338ed173960e01b865261012c42019360048701611db0565b0381837f00000000000000000000000000000000000000000000000000000000000000006001600160a01b03165af1600092816117c4575b50611761575050611ee4565b6115bc565b60068101805460ff19166001179055546001600160a01b03169061178490611cd5565b519060405191825233917fef7891eb4834356addb312671a4cd1c2611fdb9d26493f1dbf275bc7ff054f9c602060248660051b60043501013592a4611ee4565b6117da9193503d806000833e6108088183611c76565b9185611750565b6117f99060203d602011610856576108478183611c76565b5083611687565b61175c9150611ee4565b504260058301541115611603565b60ff915060081c16836115fb565b346101ec5760003660031901126101ec5761183f611b65565b60015460ff8160a01c16156118865760ff60a01b19166001556040513381527f5db9ee0a495bf2e6ff9c91a7834c1ba4fdd244a5e8aa4e537bd38aeae4b073aa90602090a1005b604051638dfc202b60e01b8152600490fd5b346101ec5760003660031901126101ec576020600654604051908152f35b346101ec576118c436611a8a565b9092936118cf611ec1565b6118d7611ea0565b6118e2831515611b91565b6118ee42831015611bdd565b6001600160a01b039081169361190684303388611de9565b61271061191560025486611c1d565b04916119218386611c30565b60405163095ea7b360e01b81527f000000000000000000000000000000000000000000000000000000000000000083166001600160a01b03811660048301526024820183905290939192909160208560448160008d5af1908115610296576000958692611a56575b506040519261199784611c5a565b6002845260403660208601378a6119ad85611cc8565b526119b784611cd5565b9b16809b526119de604051988996879586946338ed173960e01b8652339260048701611db0565b03925af1918215610296577f96c33ff19b53193fda53bab8868675504d5ac0c24f257e854da2493e7e31518592611a1c91600091611a3b5750611cd5565b516040805194855260208501919091528301523391806060810161133e565b611a5091503d806000833e6108088183611c76565b876109ae565b611a6d9060203d8111610856576108478183611c76565b508b611989565b600435906001600160a01b03821682036101ec57565b60a09060031901126101ec576001600160a01b039060043582811681036101ec579160243590811681036101ec5790604435906064359060843590565b6020908160408183019282815285518094520193019160005b828110611aee575050505090565b835185529381019392810192600101611ae0565b8054821015611b1a5760005260206000200190600090565b634e487b7160e01b600052603260045260246000fd5b60609060031901126101ec576001600160a01b039060043582811681036101ec579160243590811681036101ec579060443590565b6001546001600160a01b03163303611b7957565b60405163118cdaa760e01b8152336004820152602490fd5b15611b9857565b60405162461bcd60e51b815260206004820152601d60248201527f416d6f756e74206d7573742062652067726561746572207468616e20300000006044820152606490fd5b15611be457565b60405162461bcd60e51b8152602060048201526011602482015270111958591b1a5b9948195e18d959591959607a1b6044820152606490fd5b8181029291811591840414171561081a57565b9190820391821161081a57565b610100810190811067ffffffffffffffff82111761059757604052565b6060810190811067ffffffffffffffff82111761059757604052565b90601f8019910116810190811067ffffffffffffffff82111761059757604052565b908160209103126101ec575180151581036101ec5790565b67ffffffffffffffff81116105975760051b60200190565b805115611b1a5760200190565b805160011015611b1a5760400190565b8051821015611b1a5760209160051b010190565b60209081818403126101ec5780519067ffffffffffffffff82116101ec57019180601f840112156101ec578251611d2f81611cb0565b93611d3d6040519586611c76565b818552838086019260051b8201019283116101ec578301905b828210611d64575050505090565b81518152908301908301611d56565b90815180825260208080930193019160005b828110611d93575050505090565b83516001600160a01b031685529381019392810192600101611d85565b9192608093611dd592979695978452602084015260a0604084015260a0830190611d73565b6001600160a01b0390951660608201520152565b6040516323b872dd60e01b60208201526001600160a01b03928316602482015292909116604483015260648083019390935291815260a081019181831067ffffffffffffffff84111761059757611e4292604052611e44565b565b906000602091828151910182855af115610296576000513d611e9757506001600160a01b0381163b155b611e755750565b604051635274afe760e01b81526001600160a01b039091166004820152602490fd5b60011415611e6e565b60ff60015460a01c16611eaf57565b60405163d93c066560e01b8152600490fd5b600260005414611ed2576002600055565b604051633ee5aeb560e01b8152600490fd5b600019811461081a5760010190565b15611efa57565b60405162461bcd60e51b815260206004820152601760248201527f4e6f7420617574686f72697a6564206578656375746f720000000000000000006044820152606490fd5b60405163a9059cbb60e01b60208201526001600160a01b03929092166024830152604480830193909352918152611e4291611f7b606483611c76565b611e4456fea264697066735822122040fa76d917523967d911d79a301df67e60c274c4ad8381bbc08b31ae84a7feb664736f6c63430008140033",
  "devdoc": {
    "errors": {
      "EnforcedPause()": [
        {
          "details": "The operation failed because the contract is paused."
        }
      ],
      "ExpectedPause()": [
        {
          "details": "The operation failed because the contract is not paused."
        }
      ],
      "OwnableInvalidOwner(address)": [
        {
          "details": "The owner is not a valid owner account. (eg. `address(0)`)"
        }
      ],
      "OwnableUnauthorizedAccount(address)": [
        {
          "details": "The caller account is not authorized to perform an operation."
        }
      ],
      "ReentrancyGuardReentrantCall()": [
        {
          "details": "Unauthorized reentrant call."
        }
      ],
      "SafeERC20FailedOperation(address)": [
        {
          "details": "An operation with an ERC-20 token failed."
        }
      ]
    },
    "events": {
      "Paused(address)": {
        "details": "Emitted when the pause is triggered by `account`."
      },
      "Unpaused(address)": {
        "details": "Emitted when the pause is lifted by `account`."
      }
    },
    "kind": "dev",
    "methods": {
      "owner()": {
        "details": "Returns the address of the current owner."
      },
      "paused()": {
        "details": "Returns true if the contract is paused, and false otherwise."
      },
      "renounceOwnership()": {
        "details": "Leaves the contract without owner. It will not be possible to call `onlyOwner` functions. Can only be called by the current owner. NOTE: Renouncing ownership will leave the contract without an owner, thereby disabling any functionality that is only available to the owner."
      },
      "transferOwnership(address)": {
        "details": "Transfers ownership of the contract to a new account (`newOwner`). Can only be called by the current owner."
      }
    },
    "version": 1
  },
  "userdoc": {
    "kind": "user",
    "methods": {},
    "version": 1
  },
  "storageLayout": {
    "storage": [
      {
        "astId": 882,
        "contract": "contracts/extensions/TokenSwap.sol:TokenSwapContract",
        "label": "_status",
        "offset": 0,
        "slot": "0",
        "type": "t_uint256"
      },
      {
        "astId": 8,
        "contract": "contracts/extensions/TokenSwap.sol:TokenSwapContract",
        "label": "_owner",
        "offset": 0,
        "slot": "1",
        "type": "t_address"
      },
      {
        "astId": 763,
        "contract": "contracts/extensions/TokenSwap.sol:TokenSwapContract",
        "label": "_paused",
        "offset": 20,
        "slot": "1",
        "type": "t_bool"
      },
      {
        "astId": 1032,
        "contract": "contracts/extensions/TokenSwap.sol:TokenSwapContract",
        "label": "feePercentage",
        "offset": 0,
        "slot": "2",
        "type": "t_uint256"
      },
      {
        "astId": 1057,
        "contract": "contracts/extensions/TokenSwap.sol:TokenSwapContract",
        "label": "limitOrders",
        "offset": 0,
        "slot": "3",
        "type": "t_mapping(t_uint256,t_struct(LimitOrder)1052_storage)"
      },
      {
        "astId": 1062,
        "contract": "contracts/extensions/TokenSwap.sol:TokenSwapContract",
        "label": "userOrders",
        "offset": 0,
        "slot": "4",
        "type": "t_mapping(t_address,t_array(t_uint256)dyn_storage)"
      },
      {
        "astId": 1066,
        "contract": "contracts/extensions/TokenSwap.sol:TokenSwapContract",
        "label": "authorizedExecutors",
        "offset": 0,
        "slot": "5",
        "type": "t_mapping(t_address,t_bool)"
      },
      {
        "astId": 1068,
        "contract": "contracts/extensions/TokenSwap.sol:TokenSwapContract",
        "label": "nextOrderId",
        "offset": 0,
        "slot": "6",
        "type": "t_uint256"
      }
    ],
    "types": {
      "t_address": {
        "encoding": "inplace",
        "label": "address",
        "numberOfBytes": "20"
      },
      "t_array(t_uint256)dyn_storage": {
        "base": "t_uint256",
        "encoding": "dynamic_array",
        "label": "uint256[]",
        "numberOfBytes": "32"
      },
      "t_bool": {
        "encoding": "inplace",
        "label": "bool",
        "numberOfBytes": "1"
      },
      "t_mapping(t_address,t_array(t_uint256)dyn_storage)": {
        "encoding": "mapping",
        "key": "t_address",
        "label": "mapping(address => uint256[])",
        "numberOfBytes": "32",
        "value": "t_array(t_uint256)dyn_storage"
      },
      "t_mapping(t_address,t_bool)": {
        "encoding": "mapping",
        "key": "t_address",
        "label": "mapping(address => bool)",
        "numberOfBytes": "32",
        "value": "t_bool"
      },
      "t_mapping(t_uint256,t_struct(LimitOrder)1052_storage)": {
        "encoding": "mapping",
        "key": "t_uint256",
        "label": "mapping(uint256 => struct TokenSwapContract.LimitOrder)",
        "numberOfBytes": "32",
        "value": "t_struct(LimitOrder)1052_storage"
      },
      "t_struct(LimitOrder)1052_storage": {
        "encoding": "inplace",
        "label": "struct TokenSwapContract.LimitOrder",
        "members": [
          {
            "astId": 1037,
            "contract": "contracts/extensions/TokenSwap.sol:TokenSwapContract",
            "label": "user",
            "offset": 0,
            "slot": "0",
            "type": "t_address"
          },
          {
            "astId": 1039,
            "contract": "contracts/extensions/TokenSwap.sol:TokenSwapContract",
            "label": "tokenIn",
            "offset": 0,
            "slot": "1",
            "type": "t_address"
          },
          {
            "astId": 1041,
            "contract": "contracts/extensions/TokenSwap.sol:TokenSwapContract",
            "label": "tokenOut",
            "offset": 0,
            "slot": "2",
            "type": "t_address"
          },
          {
            "astId": 1043,
            "contract": "contracts/extensions/TokenSwap.sol:TokenSwapContract",
            "label": "amountIn",
            "offset": 0,
            "slot": "3",
            "type": "t_uint256"
          },
          {
            "astId": 1045,
            "contract": "contracts/extensions/TokenSwap.sol:TokenSwapContract",
            "label": "minAmountOut",
            "offset": 0,
            "slot": "4",
            "type": "t_uint256"
          },
          {
            "astId": 1047,
            "contract": "contracts/extensions/TokenSwap.sol:TokenSwapContract",
            "label": "expiry",
            "offset": 0,
            "slot": "5",
            "type": "t_uint256"
          },
          {
            "astId": 1049,
            "contract": "contracts/extensions/TokenSwap.sol:TokenSwapContract",
            "label": "executed",
            "offset": 0,
            "slot": "6",
            "type": "t_bool"
          },
          {
            "astId": 1051,
            "contract": "contracts/extensions/TokenSwap.sol:TokenSwapContract",
            "label": "cancelled",
            "offset": 1,
            "slot": "6",
            "type": "t_bool"
          }
        ],
        "numberOfBytes": "224"
      },
      "t_uint256": {
        "encoding": "inplace",
        "label": "uint256",
        "numberOfBytes": "32"
      }
    }
  }
}