{
  "address": "0x25E87fD2925cBe06EC0765b2db57Fdd78BfCdB74",
  "abi": [
    {
      "inputs": [
        {
          "internalType": "address",
          "name": "_initialOwner",
          "type": "address"
        }
      ],
      "stateMutability": "nonpayable",
      "type": "constructor"
    },
    {
      "inputs": [
        {
          "internalType": "address",
          "name": "owner",
          "type": "address"
        }
      ],
      "name": "OwnableInvalidOwner",
      "type": "error"
    },
    {
      "inputs": [
        {
          "internalType": "address",
          "name": "account",
          "type": "address"
        }
      ],
      "name": "OwnableUnauthorizedAccount",
      "type": "error"
    },
    {
      "anonymous": false,
      "inputs": [
        {
          "indexed": true,
          "internalType": "uint256",
          "name": "bundleId",
          "type": "uint256"
        },
        {
          "indexed": true,
          "internalType": "address",
          "name": "executor",
          "type": "address"
        },
        {
          "indexed": false,
          "internalType": "uint256",
          "name": "transactionCount",
          "type": "uint256"
        }
      ],
      "name": "BundleExecuted",
      "type": "event"
    },
    {
      "anonymous": false,
      "inputs": [
        {
          "indexed": true,
          "internalType": "address",
          "name": "previousOwner",
          "type": "address"
        },
        {
          "indexed": true,
          "internalType": "address",
          "name": "newOwner",
          "type": "address"
        }
      ],
      "name": "OwnershipTransferred",
      "type": "event"
    },
    {
      "anonymous": false,
      "inputs": [
        {
          "indexed": true,
          "internalType": "uint256",
          "name": "bundleId",
          "type": "uint256"
        },
        {
          "indexed": true,
          "internalType": "uint256",
          "name": "transactionIndex",
          "type": "uint256"
        },
        {
          "indexed": false,
          "internalType": "bytes",
          "name": "reason",
          "type": "bytes"
        }
      ],
      "name": "TransactionFailed",
      "type": "event"
    },
    {
      "inputs": [
        {
          "components": [
            {
              "internalType": "address",
              "name": "target",
              "type": "address"
            },
            {
              "internalType": "uint256",
              "name": "value",
              "type": "uint256"
            },
            {
              "internalType": "bytes",
              "name": "data",
              "type": "bytes"
            }
          ],
          "internalType": "struct TransactionBundler.Transaction[]",
          "name": "transactions",
          "type": "tuple[]"
        }
      ],
      "name": "executeBundle",
      "outputs": [
        {
          "internalType": "bool",
          "name": "",
          "type": "bool"
        }
      ],
      "stateMutability": "payable",
      "type": "function"
    },
    {
      "inputs": [],
      "name": "owner",
      "outputs": [
        {
          "internalType": "address",
          "name": "",
          "type": "address"
        }
      ],
      "stateMutability": "view",
      "type": "function"
    },
    {
      "inputs": [],
      "name": "renounceOwnership",
      "outputs": [],
      "stateMutability": "nonpayable",
      "type": "function"
    },
    {
      "inputs": [
        {
          "internalType": "address",
          "name": "newOwner",
          "type": "address"
        }
      ],
      "name": "transferOwnership",
      "outputs": [],
      "stateMutability": "nonpayable",
      "type": "function"
    }
  ],
  "transactionHash": "0x2ae6f8d7b36726c3dda5a5ae990c0eeb207e2dbb236a86307b2865de7b5b6b37",
  "args": [
    "0xb799B0857C48f96E24e4295FD961043856b847eB"
  ],
  "numDeployments": 3,
  "solcInputHash": "17f42686fb9b765a49a80cf6e8115fb8",
  "bytecode": "0x6080346100bb57601f6106a638819003918201601f19168301916001600160401b038311848410176100c0578084926020946040528339810103126100bb57516001600160a01b0390818116908190036100bb5780156100a257600080546001600160a01b03198116831782556040519316907f8be0079c531659141344cd1fd0a4f28419497f9722a3daafe3b4186f6b6457e09080a36105cf90816100d78239f35b604051631e4fbdf760e01b815260006004820152602490fd5b600080fd5b634e487b7160e01b600052604160045260246000fdfe6080604052600436101561001257600080fd5b60003560e01c8063715018a61461045c5780638da5cb5b146104335780639273f32e146100dd5763f2fde38b1461004857600080fd5b346100d85760203660031901126100d8576004356001600160a01b03818116918290036100d8576100776104b5565b81156100bf57600054826bffffffffffffffffffffffff60a01b821617600055167f8be0079c531659141344cd1fd0a4f28419497f9722a3daafe3b4186f6b6457e0600080a3005b604051631e4fbdf760e01b815260006004820152602490fd5b600080fd5b60203660031901126100d85767ffffffffffffffff600435116100d8573660236004350112156100d85767ffffffffffffffff60043560040135116100d8576004356004013560051b366024826004350101116100d857604051906060820160406020840152600435600401359052816080808201928201016024600435019260005b600435600401358110610353575050610188925042604083015203601f1981018352826104e1565b6020815191012060005b6004356004013581106102335750476101e4575b604051906004356004013582527fe1d8ab19187a36b71cfdb0b98d1a5b58355cb0fe493d79ba4429c24cc42001e560203393a3602060405160018152f35b600080808047335af16101f5610519565b506101a65760405162461bcd60e51b8152602060048201526011602482015270115512081c99599d5b990819985a5b1959607a1b6044820152606490fd5b60248160051b6004350101356082196004353603018112156100d8576004350160248101356001600160a01b03811681036100d8576064820135604219833603018112156100d857820191602483013567ffffffffffffffff81116100d85760448094019281360384136100d8576000948594836040519485928337810186815203930135905af16102c3610519565b90156102f1575060001981146102db57600101610192565b634e487b7160e01b600052601160045260246000fd5b9061034f927f2b461463d8cd2868d1b4b52ce6107af08727663eb8bfe1a6b9f610931287f030604051602081528061032c6020820187610559565b0390a360405162461bcd60e51b8152602060048201529182916024830190610559565b0390fd5b858303607f19018252909250908335906004353603608219018212156100d8576004358201602401356001600160a01b03811681036100d8576001600160a01b0316815260043582016044818101356020840152926064820135913603604219018212156100d857600435010167ffffffffffffffff6024820135116100d85760248101353603838201136100d85760808260209392600195606060408796015260248201356060840152602482013590820184840137600083602483013584010152601f60248119920135011601019501930191019084929391610160565b346100d85760003660031901126100d8576000546040516001600160a01b039091168152602090f35b346100d85760003660031901126100d8576104756104b5565b600080546001600160a01b0319811682556001600160a01b03167f8be0079c531659141344cd1fd0a4f28419497f9722a3daafe3b4186f6b6457e08280a3005b6000546001600160a01b031633036104c957565b60405163118cdaa760e01b8152336004820152602490fd5b90601f8019910116810190811067ffffffffffffffff82111761050357604052565b634e487b7160e01b600052604160045260246000fd5b3d15610554573d9067ffffffffffffffff82116105035760405191610548601f8201601f1916602001846104e1565b82523d6000602084013e565b606090565b919082519283825260005b848110610585575050826000602080949584010152601f8019910116010190565b60208183018101518483018201520161056456fea264697066735822122035d08fe90545efdd4ceaee50a674a2af3a4e063e65acfbeaeb783b8574763f6464736f6c63430008140033",
  "devdoc": {
    "errors": {
      "OwnableInvalidOwner(address)": [
        {
          "details": "The owner is not a valid owner account. (eg. `address(0)`)"
        }
      ],
      "OwnableUnauthorizedAccount(address)": [
        {
          "details": "The caller account is not authorized to perform an operation."
        }
      ]
    },
    "kind": "dev",
    "methods": {
      "owner()": {
        "details": "Returns the address of the current owner."
      },
      "renounceOwnership()": {
        "details": "Leaves the contract without owner. It will not be possible to call `onlyOwner` functions. Can only be called by the current owner. NOTE: Renouncing ownership will leave the contract without an owner, thereby disabling any functionality that is only available to the owner."
      },
      "transferOwnership(address)": {
        "details": "Transfers ownership of the contract to a new account (`newOwner`). Can only be called by the current owner."
      }
    },
    "version": 1
  },
  "userdoc": {
    "kind": "user",
    "methods": {},
    "version": 1
  },
  "storageLayout": {
    "storage": [
      {
        "astId": 387,
        "contract": "contracts/extensions/TransactionBundler.sol:TransactionBundler",
        "label": "_owner",
        "offset": 0,
        "slot": "0",
        "type": "t_address"
      }
    ],
    "types": {
      "t_address": {
        "encoding": "inplace",
        "label": "address",
        "numberOfBytes": "20"
      }
    }
  }
}